:060680008031092C00008E
:080688000D05F619A012B33AAA
:1006900020002030850002308400000803195D2B03
:1006A0000230F800F701F70B532BF80B522B973061
:1006B000F700F70B592B800B502B08000B088B13FE
:1006C00023009517151400000000891B8B170318D1
:1006D000922B13087F392000A50023001108200069
:1006E000A600230012082000A7002508111E762B63
:1006F00023009A00200026082300910020002708EC
:10070000230092000B088B139517151400000000AE
:10071000891B8B172000A20B8E2B902B2300922B72
:10072000B32B2300130D140D7F392000A5002300E7
:1007300011082000A600230012082000A7002508A9
:10074000111EA02B23009A002000260823009100F0
:100750002000270823009200910A0319920A03102F
:100760002000A20B5E2B8031272C2508F8012402E3
:100770000318BD2B2408F700C92BF7010830A60089
:10078000A40DF70D250877020318F700F80DA60B46
:10079000C02B080078082208A4006430A500B52307
:1007A0007708A20078083030031DDD2BA31CE72B4F
:1007B000A319E72B231A2030E02BA31123122314B3
:1007C000F8077808111EE22B23009A002000220867
:1007D000A4000A30A500B5237708A20078083030BD
:1007E000031DF82BA319FF2B231CFF2B231A2030EA
:1007F000F8077808111EFA2B23009A0020003030E9
:10080000A2072208111E022C23009A00803120002A
:100810002C2C23009F110C309B00A2309E009030A6
:100820009D008C018D018F019001220092019101A8
:1008300064302000A2004923A10A44302300910023
:1008400003309200031005302000A2005E2B210827
:10085000A2001330A300CA2B2030111E2D2C230020
:100860009A0021000F1420000F1C01006430A20028
:0608700049231C2C63006B
:020000040001F9
:04000E00C23FFF1ED0
:00000001FF
;PIC16F1787
;CRC=C181  CREATED="26-Sep-19 18:08"
