:060000008031422A0000DD
:08000800830180318331462B96
:1000100009000D05C2376F3AEC3761326539202B84
:10002000A0180D0500000D05E4377737EC37613275
:10003000693767000B088B13230095171514000010
:100040000000891B8B1713087F39031968282000CB
:10005000E700230011082000E80023001208200018
:10006000E9006708111E322823009A002000680862
:100070002300910020006908230092000B088B13D5
:100080009517151400000000891B8B17130D140D14
:100090007F39031968282000E70023001108200099
:1000A000E800230012082000E9006708111E562806
:1000B00023009A00200068082300910020006908AE
:1000C00023009200910A0319920A20001A282300A3
:1000D00020000800111E6A2823009A002000080052
:1000E0002100CA01CB014B08013C031CA32849088D
:1000F000FA00480884007A0885000008403C03188C
:1001000091284A0ECC00F030CC054908FA00480886
:1001100084007A08850000084C07BF3E0A3ECA00EA
:100120009D284A0ECC00F030CC05480884004908D0
:10013000850000084C07D03ECA004B08CB0AC80A0D
:100140000319C90A73284A08F800200008000B08A0
:10015000F8008B13230055309600AA3096009514B2
:10016000000000009518B228151178088B042000B3
:100170000800E510EB01EA01E5183B2AA201033073
:1001800022078400203085000318850A911EC628A6
:1001900023001908800020002208A20A033E8400E0
:1001A000203085000318850A00080D3C0319DC285F
:1001B0002208403C0318BF2813306A206514230826
:1001C0003A3C031D342A20302100C9000430C80005
:1001D0002000702078082100A2002030C9000630DD
:1001E000C8002000702078082100C4002030C90019
:1001F0000830C8002000702078082100C50044089D
:100200002000E900210045082000E80020302100FE
:10021000C9000A30C800200070207808E7006A088A
:10022000EE006B08EF006808EC006908ED000310B1
:10023000EF0CEE0CED0CEC0CE60101302100A100FE
:100240000330200022022100210203183D2903303F
:100250002107F8002030FA000318FA0A7808C400D1
:100260007A08C500C9004408C8002000702078083A
:10027000E60702302100A107202920006608FF3C84
:10028000013EE60003302202033EF8002030FA006F
:100290000318FA0A78082100C4007A08C500C900CA
:1002A0004408C800200070207808660203195A2903
:1002B0006510342A670B5E29E514342A6708043C6C
:1002C000031D7D2920302100C9000C30C80020000A
:1002D000702078082100C4002030C9000E30C8000A
:1002E0002000702078082100C50044082000EB00A1
:1002F000210045082000EA00342AE708031D342ABB
:10030000EF08031D9129EE08031D91296D08023C99
:100310000318342AFF3A031D91296C083F3C031847
:10032000342AEF08031D342AEE08031D342A6D0811
:100330001F3C031C342A09302100A100A001033016
:1003400020002202210021020318CC292008A00A43
:10035000533EF8002030FA000318FA0A7808C40067
:100360007A08C50003302107F8002030FA0003188E
:10037000FA0A7808C6007A08C700C9004608C8000B
:10038000200070202100450885004408840078087A
:1003900080000230A1079F2920006D0823009200F1
:1003A00020006C0823009100203085005330840029
:1003B00021002208C40023009517951611081F3943
:1003C0000319F229F9001108E03991001514000011
:1003D000000015152000A7202300910A0319920A96
:1003E000F90BE62921004408F9000310F90C000874
:1003F00023009300013100089400013111081F39D6
:100400001F3C031D092A1516151595122000A7205B
:10041000230015152000A72023009516910A031923
:10042000920AF90B142A162A2100F72911081F39FC
:100430000319332A203CF9001514000000001108AC
:100440001F391F3C031D2A2A151615159512200069
:10045000A720230015152000A7202300910A0319C7
:10046000920AF90B1C2A2000651C382A06306A20E3
:1004700011306A20BC2806306A2011306A20010041
:100480008031692A23009F110C309B00A2309E000E
:1004900090309D002000E401E30123008C018D01D8
:1004A0008F01900122009201910121000F14200080
:1004B0000F18692A093023009100003092002000B3
:1004C0001A201330230091000030920020001A20DF
:0604D000B928402363007F
:04068000402B080003
:020000040001F9
:04000E00C23FFF1ED0
:00000001FF
;PIC16F1787
;CRC=A4B0  CREATED="20-Aug-19 21:06"
