:060000008031212D0000FB
:0800080083018031200077081C
:10001000A0007808A1007908A2007A08A3002300B4
:1000200011082000A400230012082000A5002300CE
:1000300013082000A600230014082000A7008B1E30
:1000400023280B194328850191308400001C2A289D
:10005000111845282008F7002108F8002208F900A7
:100060002308FA002408230091002000250823001B
:100070009200200026082300930020002708230078
:100080009400090020008031C72A8031CD292A152B
:100090002A152A154937693AE930EC34FA34EE3337
:1000A000A0306E3A6537EE3020326538EC37F936DD
:1000B00065377410E634F23974107439E9306C1015
:1000C0002A152A152A152A152A050D002A152A157A
:1000D0002A15C3274D10D02443104F2720152A1569
:1000E0002A152A152A158A0600012A152A152A1505
:1000F000CD3069372028C921A0274E102A152A158E
:100100002A152A152A050D002A152A152A155537EC
:10011000F23267102319A0274E102A152A152A1526
:100120002A152A050D002A152A152A155537F232E7
:1001300067102319A027462320152A152A152A15EA
:100140002A158A0600002A152A152A155537F23273
:1001500067102319A027462320234F29452B452923
:1001600020152A152A152A152A158A0600002A158F
:100170002A152A15D232F3327410ED37E432A02753
:100180004E102A152A152A152A152A050D002A159A
:100190002A152A154F2346102A152A152A152A151D
:1001A0002A050D002A152A152A154F2720152A156C
:1001B0002A152A152A158A0600002A152A152A1535
:1001C00041224310F232613269376710733A613964
:1001D00074102A152A152A152A152A050D006508F6
:1001E000F80164020318F7286408F7000329F701EF
:1001F0000830E600E40DF70D650877020318F700F4
:10020000F80DE60BFA28080020305F1E3030E000C1
:100210005E08F700DE1F1429F709F70A7708DE00E9
:100220002D30E000DF175F145E08E4006430E50065
:10023000EF207708DE0030307807E1005E08E40048
:100240000A30E500EF2030307707E30030307807E0
:10025000E2006008F7003030610203193329DF142F
:10026000DF1B5F1547295F1947296008E100DF1888
:100270003E2930306202031941295F14DF1BDF146D
:100280004729031D5F14031D47296108E2005F1918
:100290004E29DF1854295F185A2960296008111E59
:1002A0004F2923009A0020006108111E55292300C0
:1002B0009A0020006208111E5B2923009A0020008A
:1002C0006308111E612923009A00200008000B0812
:1002D0008B1323009517151400000000891B8B1742
:1002E00013087F390319B5292000DE002300110807
:1002F0002000DF00230012082000E0005E08111E2D
:100300007F2923009A0020005F082300910020002D
:100310006008230092000B088B139517151400003A
:100320000000891B8B17130D140D7F390319B52994
:100330002000DE00230011082000DF002300120847
:100340002000E0005E08111EA32923009A0020006F
:100350005F08230091002000600823009200910AAA
:100360000319920A2000672923002000080020308A
:1003700085003F30840000080319CC290530F800BF
:10038000F701F70BC129F80BC0292E30F700F70B46
:10039000C729CA29800BBE29080096018030970022
:1003A000960129083A3C031CD729A90AD929A90191
:1003B000AA0A2A083C3C031DDF29AA01AB0A2B0824
:1003C000183C031DE929AB01AC0A0319AD0A013041
:1003D000AE000C3084002D08DF002C08DE0005087C
:1003E000E8000408E700DF1FFD29E717671EE70A9A
:1003F000DE09DF09DE0A0319DF0A5F0EF038E300C9
:10040000E307E23EE400323EE6005F080F39E4070E
:10041000E407E607E93EE500E507E5075E0E0F396C
:10042000E507E607E50DE60DE609E60D5E080F397E
:10043000E607E30D0730E2000A30E607E503031C98
:100440001D2AE507E403031C212AE407E303031C38
:10045000252AE307E203031C292A203085004230C5
:1004600084000730670567133F316705031D3F2A86
:10047000671A0131671A3F2A2030F700622A840781
:100480000030853D0408463C031D4A2A0508203CEF
:10049000031967170008F700031D562A671B562A21
:1004A000671A682AE719562A2030612AE71F5E2A50
:1004B0002D30F70011006713E713622AE715671262
:1004C0003030F7077708111E632A23009A002000B6
:1004D0000131671F422A3A30111E6C2A23009A000C
:1004E00020002B08DE000130DF0004213A30111E0D
:1004F000772A23009A0020002A08DE000130DF005E
:1005000004213A30111E822A23009A002000290873
:10051000DE000130DF0004210D30111E8D2A230082
:100520009A000A302000111E932A23009A0020000E
:100530002E0BC42AB7302300910000309200200017
:1005400067210F138F138F100F100E11C730230068
:10055000910000309200200067210430DE00FA3064
:10056000DF00B721DE0BAF2AD2302300910000302C
:100570009200200067210F178F170E168F148F150A
:100580000F140E158E12AE01111080312A28150895
:10059000031DD12A0D150630F700F70BCD2A0000F8
:1005A0000D110B1180312A282A152A152A152A1512
:1005B0002A152A152A152A152A152A152A152A1543
:1005C0002A152A152A152A152A152A152A152A1533
:1005D0002A152A152A152A152A152A152A152A1523
:1005E0002A050D002A152A152A1520102010202A68
:1005F000C8245310C9292029C529452A2028C921E2
:10060000A0224D10D622D229C9274E10201020102A
:10061000201020102A152A152A152A152A050D0042
:100620002A152A152A152A152A152A152A152A15D2
:100630002A152A152A152A152A152A152A152A15C2
:100640002A152A152A152A152A152A152A152A15B2
:100650002A152A152A152A152A050D002A152A15E4
:100660002A15CE37F2366136A0266F326510533A1E
:10067000613974102A152A152A152A152A050D0024
:10068000C7377410E337ED36613764106639EF36DB
:10069000A026C1244E1D253C0D0500002A152A1553
:1006A0002A15D3326E3269376410E430F430203AC0
:1006B0006F10ED30693720152A152A152A152A15CD
:1006C0008A0600012A152A152A15C3377239E53121
:1006D0007410C337ED3661376410EE377410F232A0
:1006E000E332693B653220152A152A152A152A1589
:1006F0008A0600008730980099019815210011148E
:1007000080312000CD2DDB01DA01D9010130D80084
:100710005B085702031CB42B031D9E2B5A0856027C
:10072000031CB42B031D9E2B59085502031CB42B2C
:10073000031D9E2B58085402031CB42B0430DC000C
:10074000A8018B1BA8178B13FA30DF00B721A81B59
:100750008B17DC0BA02B0130D8070318D90A03191B
:10076000DA0A0319DB0A882B0800473023009100BE
:10077000003092002000A8018B1BA8178B13672163
:10078000A81B8B170F1766302300910000309200D2
:100790002000A8018B1BA8178B136721A81B8B17A0
:1007A0008F17753023009100003092002000A801BF
:1007B0008B1BA8178B136721A81B8B170E168F1086
:1007C0008F150F100E158430230091000030920019
:1007D0002000A8018B1BA8178B136721A81B8B1760
:1007E0008E16D701D601D5010A30D40083238E128C
:1007F000933023009100003092002000A8018B1B51
:10080000A8178B136721A81B8B178031DF2D0F17BB
:100810008F170E168F148F150F140E158E1680312C
:10082000ED2D540DF700F70DFC30F70521001D08E4
:10083000833977049D000F30F8001F08F0397804E1
:100840009F001A30F700F70B232C00009D149D1811
:10085000272C1C082000D5005508F8000800DD30C2
:1008600023009100003092002000A8018B1BA817E4
:100870008B136721A81B8B17D40111247808B500AE
:100880000130D40011247808B6000230D4001124BD
:100890007808B7000430D40011247808B800053077
:1008A000D40011247808B9008031FB2D21008F1667
:1008B00020008F1A592C0830F700D401F7176E2C3E
:1008C000F7136E2C03108F1A0314D40C77176E2CA9
:1008D0007713F70B622C5408F8007A2C8430F71B3E
:1008E0002430F800F80B722C752CF71B602C771B4A
:1008F000682C622C8031152E0B088B132300951762
:10090000151400000000891B8B170318B02C130866
:100910007F392000D500230011082000D6002300D5
:1009200012082000D7005508111E942C23009A00AD
:100930002000560823009100200057082300920051
:100940000B088B139517151400000000891B8B17DB
:100950002000D40BAC2CAE2C2300B02CD12C2300C7
:10096000130D140D7F392000D5002300110820003D
:10097000D600230012082000D7005508111EBE2CF7
:1009800023009A00200056082300910020005708F9
:1009900023009200910A0319920A03102000D40B3D
:1009A0007C2C8031212ED51BE82C0F30F700540E03
:1009B000F7050A3077020318E02C3030F707E22CF5
:1009C0005508F7077708111EE32C23009A00200032
:1009D0000F30D4050A3054020318F02C3030F22CBA
:1009E000D5135508D4075408111EF42C23009A007F
:1009F00080312000262E21000F1222000F12083015
:100A0000F800022D0000F817152DF8132000D50C62
:100A1000220003180F16031C0F127817152D7813D8
:100A2000F80B062D132D00000F1684308400840B64
:100A3000172D0000F81B052D781B0F2D803120008D
:100A40005E2E22001D159D1423009F15A0309B00D3
:100A500001309C00A6309E0090309D0021000F12B6
:100A600022000F1623009F15A0309B0001309C0030
:100A7000A6309E0090309D002000A901AA01AB0184
:100A8000AD01AC01CA01CB01CC01CE01CD012300E7
:100A90008C018D018E018F01900122009201910144
:100AA0002000BA01BB01BC01BD01BE01BF01C001F4
:100AB000C101C201C301C401C501C601C701C8010A
:100AC000C901D43023009100023092002000A80117
:100AD0008B1BA8178B136721A81B8B17F2302300E1
:100AE0009100023092002000A8018B1BA8178B13E5
:100AF0006721A81B8B171030230091000330920050
:100B00002000A8018B1BA8178B136721A81B8B172C
:100B1000A8018B1BA8178B136430DF00B721A81B1B
:100B20008B1721000E1120000E1121008E112000C4
:100B30008E1121000E1220000E1221008E122000B4
:100B40008E1221000F1020000F1021008F102000A6
:100B50008F1021000F1120000F1121008F11200094
:100B60008F1121000F1320000F1321008F1320007D
:100B70008F1321000D111E169E161E139E131D1499
:100B80001E109E101E112F3023008C000330900089
:100B900000308D008F0020007A2BC0308B048B1624
:100BA00021001508C03907389500FF302000950056
:100BB000D701D601D5010530D4008323B52B2E30C3
:100BC00023009100033092002000A8018B1BA8177E
:100BD0008B136721A81B8B17072C8E30AF002908B9
:100BE000B0002A08B1002B08B200D5012D08B300CF
:100BF0002C08B4002F2CD201D101D001CF01D20892
:100C0000031D3C2E5108013C031C3C2E031D122EDB
:100C10005008863C031C3C2E031D122E4F089F3C9F
:100C2000031C3C2E8F1A332E562C7808CC004030F3
:100C30002300910003309200031016302000D400EE
:100C40007C2C4C08D4005730D500D32C0D30111E0D
:100C5000272E23009A000A302000111E2D2E23007B
:100C60009A0020003C2E0130CF070318D00A031948
:100C7000D10A0319D20AFF2D4C08283C031D612E0E
:100C80004E3023009100033092002000A8018B1BFE
:100C9000A8178B136721A81B8B17CC01D30153080E
:100CA000093C031C602E0F30530784002030850060
:100CB0000318850A0008D400D500FB2CD30A4F2E58
:100CC0006E2E623023009100033092002000A801B4
:100CD0008B1BA8178B136721A81B8B17ED2D6300A7
:020000040001F9
:04000E00C239231EB2
:00000001FF
;PIC16F1789
;CRC=7596  CREATED="31-10-18 16:28"
