:100000008031922800000D05C837EC3000000D3417
:100010000A340034CE3774346937671069372031B9
:100020007533E63272000B088B13230095171514F5
:1000300000000000891B8B1713087F390319632800
:100040002100D200230011082100D3002300120850
:100050002100D40052082000111E2C2823009A00F1
:10006000210053082300910021005408230092002E
:100070000B088B139517151400000000891B8B17B4
:10008000130D140D7F39031963282100D2002300BA
:1000900011082100D300230012082100D4005208C7
:1000A0002000111E512823009A002100530823002C
:1000B00091002100540823009200910A0319920A2A
:1000C0002000132823002000080020308500833002
:1000D00084000008031979280230F800F701F70BB3
:1000E0006F28F80B6E289730F700F70B7528800BF8
:1000F0006C28080080080319902805082100D50005
:100100000408D40000082000111E842823009A004F
:1001100021005508850054088400013120007A2808
:100120008031E02823009F110C309B00A2309E00FC
:1001300090309D002100D101D00123008C018D0160
:100140008F01900122009201910121000F102200E5
:100150000F10033023009100003092002000132084
:1001600004302100D200FA30D300200065202100A5
:10017000D20BB3280F1022000F142000911EE1288B
:1001800020308500840113000131911EC528230011
:10019000190880000D3000020319D0282000C4285F
:1001A00080010030FA0007302100D2007A08D30025
:1001B0002030D307530885005208840020007A2895
:1001C000E8280A302300910000309200200013201C
:1001D00004302100D200FA30D30020006520210035
:0801E000D20BEB28A6286300F6
:020000040001F9
:04000E00C23FFF1ED0
:00000001FF
;PIC16F1787
;CRC=4FC0  CREATED="20-Aug-19 20:34"
