:1000000080313F2800002030850012308400000835
:10001000031918280530F800F701F70B0D28F80B25
:100020000C282E30F700F70B13281628800B0A280F
:10003000080021008D1022008D100830F8002028C3
:100040000000F8173328F8132000B20C2200031820
:100050008D14031C8D10781733287813F80B24287F
:10006000312800008D1484308400840B3528000072
:10007000F81B2328781B2D288031200083287A3014
:10008000210099008D1022008D1423009F15A030AF
:100090009B0001309C00A6309E0090309D008C019A
:1000A0008D018E018F019001220092019101AA30F1
:1000B0002000A0006730A100A200A3005530A400DA
:1000C0006730A500A6007330A7006730A800A9001C
:1000D000AA00AB00AC00AD00AE00BB30AF000830F2
:1000E000B100FA30B2000320B10B7128B001300822
:1000F0000F3C031C85283008840020308500000850
:10010000B100B2001928B00A77280430B100FA30E3
:0A011000B2000320B10B8728630042
:020000040001F9
:04000E00843F231EEA
:00000001FF
;PIC16F1789
;CRC=8136  CREATED="25-7-18 11:17"
