:06000000803159280000C8
:0800080083018031200077081C
:10001000A0007808A1007908A2007A08A300850151
:1000200091308400801E1628911A1F282008F7009E
:100030002108F8002208F9002308FA00090080319D
:10004000212821008F1620008F1A24280830F7005D
:10005000A501F7173928F713392803108F1A03144D
:10006000A50C771739287713F70B2D282508F800EA
:1000700045288430F71B2430F800F80B3D28402831
:10008000F71B2B28771B33282D287808703C031D7D
:100090004F287030111E4A2823009A002000911228
:1000A00080311628C0308B04210091168031200049
:1000B0009B2821000F1222000F161D159D142300EE
:1000C0009F15A0309B0001309C00A6309E00903010
:1000D0009D008C018D018E018F0190012200920103
:1000E000910121008F1022008F1421000E12220096
:1000F0000E1621000F1022000F1421008F11220074
:100100008F1521000F1122000F1521008E112200E2
:100110008E1521000E1122000E1521008E122200D4
:100120008E1621000F1322000F1721008F132200BB
:0A0130008F17200052289B2863005F
:020000040001F9
:04000E00A23F231ECC
:00000001FF
;PIC16F1789
;CRC=047D  CREATED="16-7-18 13:45"
