:0606800080310A2C00008D
:080688000D057619A012B33A2A
:1006900020002030850002308400000803195D2B03
:1006A0000230F800F701F70B532BF80B522B973061
:1006B000F700F70B592B800B502B80311D2C0B08AA
:1006C0008B1323009517151400000000891B8B174E
:1006D0000318932B13087F392000A500230011086D
:1006E0002000A600230012082000A7002508111EE4
:1006F000772B23009A002000260823009100200079
:100700002708230092000B088B139517151400007F
:100710000000891B8B172000A20B8F2B912B23002D
:10072000932BB42B2300130D140D7F392000A5004B
:10073000230011082000A600230012082000A700B3
:100740002508111EA12B23009A0020002608230053
:1007500091002000270823009200910A0319920AB1
:1007600003102000A20B5F2B8031282C2508F801F4
:1007700024020318BE2B2408F700CA2BF701083007
:10078000A600A40DF70D250877020318F700F80D51
:10079000A60BC12B080078082208A4006430A5002D
:1007A000B6237708A20078083030031DDE2BA31C87
:1007B000E82BA319E82B231A2030E12BA3112312D5
:1007C0002314F8077808111EE32B23009A00200059
:1007D0002208A4000A30A500B6237708A2007808F2
:1007E0003030031DF92BA319002C231C002C231AD5
:1007F0002030F8077808111EFB2B23009A002000F8
:100800003030A2072208111E032C23009A008031E9
:1008100020002D2C23009F110C309B00A2309E0045
:1008200090309D008C018D018F019001220092017A
:10083000910164302000A200492BA10A443023001A
:10084000910003309200031005302000A2005F2BBE
:100850002108A2001330A300CB2B2030111E2E2C18
:0E08600023009A0020001D2C2200192C63009A
:020000040001F9
:04000E00C23FFF1ED0
:00000001FF
;PIC16F1787
;CRC=7161  CREATED="28-Aug-19 19:05"
