:0405000004EF03F011
:080508000D0A4170706C69637B
:100510006174696F6E2056657273696F6E20312E3B
:10052000300D0A00EA6A070EE96EEF500EE0050E84
:10053000016E006A002EFED7012EFBD72E0E006E34
:10054000002EFED700D0EF2EF2D720EF03F00900E7
:10055000F5520DE0F6CF07F0F7CF08F0F5509EA862
:10056000FED7AD6E07C0F6FF08C0F7FFF0D725EF46
:1005700003F00A50016A095C03E209C000F00CD0E4
:10058000006A080E0B6E093600360A50005CD8B0BF
:10059000006E01360B2EF7D71200015007C009F08C
:1005A000640E0A6EE6DF00C007F00150300E07E16E
:1005B00008A20DD008B60BD008B8200E03D00896BC
:1005C00008980880012601509EA8FED7AD6E07C08E
:1005D00009F00A0E0A6ECDDF00C007F00150300EA0
:1005E00006E108B609D008A007D008B8200E0126F9
:1005F00001509EA8FED7AD6E300E072607509EA86C
:10060000FED7AD6E2BEF03F0F86AD09EB886A00E31
:10061000AF6E010EB06EA60EAC6E900EAB6E056A9C
:10062000046A0F01386B396B3A6B3B6B3C6B010111
:10063000886B776A786A796A640E076E000172D7F0
:10064000080EF66E050EF76E82D7062A06C007F072
:10065000130E086EA2D7200E9EA8FED7AD6EF5D75A
:02066000030095
:020000040030CA
:0E00000000E21E3C00BF81000FC00FE00F4069
:00000001FF
;PIC18F45K22
;CRC=4575  CREATED="03-Feb-20 15:18"
