:0400000090EF01F08C
:0800080084EF02F0000000008B
:1000100000000000000000008CEF02F010000D0A4C
:10002000426F6F746C6F616465722056657273699C
:100030006F6E20312E300D0A00000D0A5761697471
:10004000696E6720666F7220646F776E6C6F616493
:100050002E2E2E000900F5520DE0F6CF49F0F7CF15
:100060004AF0F5509EA8FED7AD6E49C0F6FF4AC0D3
:10007000F7FFF0D712009EA8FED7AD6E12007D6B81
:100080007E6B7E5101082BE37CC003F07BC0E9FF4F
:100090007CC0EAFFEF50400810E27D51100DF3CF15
:1000A0007FF07CC003F07BC0E9FF7CC0EAFFEF502B
:1000B0007F25BF0F0A0F7D6F0CD07D51100DF3CF40
:1000C0007FF07BC0E9FF7CC0EAFFEF507F25D00FB7
:1000D0007D6F7E517E2B7B2BD8B47C2BD2D77DC0FD
:1000E00001F01200F250036EF29EA68EA6840F015C
:1000F000550EA76EAA0EA76EA68200000350F2123C
:1001000000011200D08CA69CF6503F0B006EC00E72
:10011000F6160A0077C001F0006607D0EECFF5FFB3
:10012000015204E00F00010603D000060B000C0092
:100130003F0EF6143F0AF0E1A688D4DFD3DF016654
:10014000EBD7F86A7FEF01F049924F6A4E6A49B2E5
:10015000DDD0066A036A0650070FE96E000E032021
:10016000EA6E9EAAFED7AECFEFFF0650062A036ABC
:10017000070FE96E000E0320EA6EEF500D0803E052
:1001800006504008E7E2130E76DF498007503A0830
:10019000D8A4B5D07C6B080E7B6F71DF01C056F020
:1001A0007C6B0A0E7B6F6BDF01C077F07C6B0C0EF3
:1001B0007B6F65DF77C04DF001C04CF07C6B0E0E9D
:1001C0007B6F5DDF01C04BF04EC052F04FC053F06B
:1001D0004CC050F04DC051F04A6A010E556E030EEE
:1001E000065C555C14E2036A5550070F016E000E61
:1001F000032201C077F003C078F003C07CF001C097
:100200007BF03DDF01504A26020E5526E8D7FF0E4F
:10021000D8804A54010F4A6E030E065C036A070F2A
:10022000016E000E032201C077F003C078F003C016
:100230007CF001C07BF023DF01504A5C02E0499072
:100240005ED04B2C02D049825AD04B50040811E1A9
:100250007C6B100E7B6F13DF01C077F07C6B120E8E
:100260007B6F0DDF01C078F077C04FF001C04EF01A
:1002700046D04B5244E1535205E1525203E15150F2
:1002800004083DE253523BE1525239E151507F089C
:1002900036E3090E556E546A030E065C555C23E284
:1002A0005450542A036A570F016E000E032201C0F6
:1002B00077F003C078F0036A5550070F016E000E07
:1002C000032201C079F003C07AF003C07CF001C0C2
:1002D0007BF0D5DE78C0EAFF77C0E9FF01C0EFFF11
:1002E000020E5526D9D752C0F8FF51C0F7FF50C0B3
:1002F000F6FFEA6A570EE96E56C077F003D749A0B9
:1003000002D0060EB8DE110EB6DE21D7060EB3DE21
:10031000110EB1DEFF008EEF01F016D7B7EF01F03E
:10032000F86AD09EB886A00EAF6E010EB06EA60E13
:10033000AC6E900EAB6E486A476A0F01386B396B32
:100340003A6B3B6B3C6B0101886B776A786A796A20
:10035000928880B80DD01E0EF66E000EF76E00016A
:1003600079DE3A0EF66E000EF76E74DED6D7010116
:060370000001C6D80300E5
:04050000FFD712000F
:020000040030CA
:0E00000000E21E3C00BF81000FC00FE00F4069
:00000001FF
;PIC18F45K22
;CRC=1499  CREATED="03-Feb-20 15:38"
