:0600000080311928000008
:08000800203085000230840065
:100010000008031918280230F800F701F70B0E2822
:10002000F80B0D289730F700F70B1428800B0B28DE
:10003000080023008C018D018F01900122009201A4
:10004000910121000F1022000F1004302000A100A8
:10005000FA30A2000420A10B282821000F10220052
:100060000F1404302000A100FA30A2000420A10BDC
:1000700034280430A1000230A200903100208031E9
:100080000430A1000230A200903100228031220011
:0400900021286300C0
:0820000022082107F800080086
:102400002108A3002208A40024082302F800780869
:022410000800C2
:020000040001F9
:04000E00C23FFF1ED0
:00000001FF
;PIC16F1787
;CRC=29CC  CREATED="03-Feb-20 16:20"
