:0400000016EF32F0D5
:080008000D0A2D2D25732D2D8D
:1000100000000D0A0D0A2020202020202020200092
:100020000D0A0D0A2D2D4641542053746174732D11
:100030002D0D0A0046697273742046415420737472
:10004000617274732061743A203078256C580D0AFF
:1000500000004461746120537461727473204174B0
:100060003A203078256C580D0A00526F6F74204486
:1000700069726563746F72792049732041743A2004
:100080003078256C580D0A004279746573205065EC
:100090007220436C75737465723A203078256C5801
:1000A0000D0A00000D0A0D0A2D2D000020496E6674
:1000B0006F2D2D000D0A4174747269627574657339
:1000C0003A203078255800000D0A43726561746546
:1000D000643A20000D0A4D6F6469666965643A20D0
:1000E00000000D0A5374617274696E6720636C7549
:1000F000737465723A20256C58000D0A537461724E
:1001000074696E6720616464726573733A20256C4C
:1001100058000D0A53697A653A20256C752042799A
:100120007465730D0A000D0A0A25733E20000D0A3E
:1001300044656C6574696E6720272573273A200033
:100140004572726F722064656C6574696E672066B3
:10015000696C65000D0A4D616B696E672066696C9C
:100160006520272573273A2000004572726F7220A0
:100170006372656174696E672066696C65000D0A5B
:10018000417070656E64696E67202725732720743F
:100190006F20272573273A2000004572726F722066
:1001A0006F70656E696E672066696C6500004572E8
:1001B000726F7220636C6F73696E672066696C651D
:1001C00000000D0A4572726F72206368616E676984
:1001D0006E67206469726563746F727900000D0A3E
:1001E0004D616B696E67206469726563746F7279C3
:1001F00020272573273A20004572726F72206372A0
:10020000656174696E67206469726563746F727981
:1002100000000D0A52656D6F76696E672064697221
:100220006563746F727920272573273A2000457221
:10023000726F722072656D6F76696E672064697285
:100240006563746F727900000D0A4572726F7220D7
:100250006F70656E696E672066696C6500000D0AD7
:10026000466F726D617474696E67206D6564696153
:10027000202873697A653D254C55293A200045723E
:10028000726F7220666F726D617474696E67206D33
:100290006564696100000D0A464154205368656C2D
:1002A0006C2048656C7000000D0A2064656C206647
:1002B000696C656E616D65202D2D2D2044656C6522
:1002C000746573207468652066696C6500000D0AAA
:1002D000206D616B652066696C656E616D65202DB2
:1002E0002D2D204372656174657320616E20656DEC
:1002F0007074792066696C6500000D0A2061707069
:10030000656E642066696C656E616D6520737472DC
:10031000696E67202D2D2D20417070656E647320ED
:10032000737472696E6720746F2074686520656EDF
:1003300064206F66207468652066696C65000D0A2C
:1003400020636420646972202D2D2D204368616E26
:1003500067652074686520776F726B696E672064CB
:1003600069726563746F727900000D0A20646972A6
:10037000202D2D2D2053686F7773207468652063BE
:100380006F6E74656E7473206F6620746865206488
:1003900069726563746F727900000D0A206361747D
:1003A0002066696C656E616D65202D2D2D20446978
:1003B00073706C61797320636F6E74656E74206FF7
:1003C000662066696C6500000D0A207461696C2006
:1003D00066696C656E616D65202D2D2D20446973F5
:1003E000706C61797320746865206C617374203857
:1003F000302063686172616374657273206F662078
:1004000066696C6500000D0A206D6B64697220647A
:100410006972202D2D2D2043726561746520612045
:100420006469726563746F7279000D0A20726D647D
:10043000697220646972202D2D2D2044656C6574CD
:10044000657320746865206469726563746F72797E
:1004500000000D0A20666F726D61742073697A6501
:10046000202D2D2D20466F726D61742063617264A2
:100470002E2020284578616D706C653A2027666FC4
:10048000726D617420353532343238382720666F0A
:10049000726D6174732061203531324D4220636189
:1004A000726429000D0A2068656C7009596F752007
:1004B000617265206865726500000D0A0A2050753A
:1004C00074206120706172616D6574657220696E5F
:1004D0002071756F74657320696620697420686186
:1004E000732073706163657300000D0A0A455252F0
:1004F0004F5220494E495449414C495A494E472090
:100500004641540D0A0A00000D0A556E6B6F776E56
:1005100020436F6D6D616E64202725732700C950DD
:1005200006C7C9FFC730FEE3C9CF01F012000701BB
:1005300006690001F4DF8B841200060EEA6E240EB9
:10054000E96EEF500EE0080E016E006A002EFED735
:10055000012EFBD7190E006E002EFED700D0EF2E15
:10056000F2D712008B94120007010C6B096B085133
:10057000095D1DE206C7E9FF07C7EAFFEFCF0BF7EA
:100580000A6B0A5107080CE3D8900C370B510C1971
:10059000800B02E0090E0C1BD8900B370A2BF1D709
:1005A0000C9F0951092B062BD8B4072BE0D7D88014
:1005B0000C370CC701F00001FAEF02F00601FB5105
:1005C00040090701006FFFC601F70701FEC602F7E9
:1005D0000701FDC603F70701FCC604F70701020186
:1005E0000BA10CD0070E0701076F066B050E086FF5
:1005F0000001BAD701C005F704D00201070105695F
:10060000000100C706F78BDF01C706F788DF02C7C6
:1006100006F785DF03C706F782DF04C706F77FDF2B
:1006200005C706F77CDF000E016E12000601FB6BAA
:10063000FC69FC5310E007010669000170DF0150FE
:1006400001C0FBF60601FB3D01D003D0FBC601F063
:1006500004D0FC07EED7800E016E000112000601E7
:10066000FB6BFF6BFE6BFD6BFC6B0001A7DFDEDF3E
:10067000015095EF04F0010E0601FB6FFF6BFE6B5E
:10068000FD6BFC6B00019ADFD1DF0150ABEF04F092
:10069000370E0601FB6FFF6BFE6BFD6BFC6B000101
:1006A0008DDFC4DF0150BDEF04F0290E0601FB6FA2
:1006B000FF6BFE6BFD6BFC6B000180DFB7DF015051
:1006C000C0EF04F0100E0601FB6F27C6FFF626C62A
:1006D000FEF625C6FDF624C6FCF600016FDFA6DF98
:1006E0000150D7EF04F03B0E0601FB6FFF6BFE6B72
:1006F000FD6B24C6FCF6000161DF02010B910601CF
:1007000024A103D002010B81060100018FDF0150FB
:10071000E9EF04F0110E0601FB6FFAC6FFF6F9C609
:10072000FEF6F8C6FDF6F7C6FCF6000147DF7EDFF1
:100730000150F3EF03F07ADF01C0F8F60601F7513C
:10074000F85D03E1000E016E02D0F8C601F0000171
:1007500002EF04F00701026B016B0601FE6BFD5115
:10076000FE5D2DE2FBC6E9FFFCC6EAFFEFCF00F716
:10077000FF6BFF5107081AE3D890070101370237D2
:1007800000510119036F0251046F000B006E0451F8
:10079000800B036E0050031004E0210E011B100EAD
:1007A000021BD89000370601FF2BE3D70701029FF9
:1007B0000601FE51FE2BFB2BD8B4FC2BD0D7D880E2
:1007C00007010137023701C701F002C702F000013B
:1007D0001200C8DEEFC6FAF6EEC6F9F6EDC6F8F678
:1007E000ECC6F7F697D701C0F4F60601F45306E01D
:1007F00000019DDE0601F4C601F066D0FE0EF76F23
:10080000000199D701C0F4F60601F45306E0000197
:100810008EDE0601F4C601F057D0F66BF56BF6518B
:10082000F15D17E303E1F051F55D13E2F251F525B7
:10083000E96EF351F621EA6E0701066900016FDEE9
:10084000015001C0EFFF010E0601F527000EF6234F
:10085000E6D702010BA12AD00701066900015FDE7D
:10086000015001C0F7F607010669000158DE01508A
:1008700001C0F8F6F7C6FAF601C0F9F60601FC6BFE
:100880000B0EFB6FFD6B000165DF02C003F0015032
:100890000601F95D03E10350FA5D06E0000147DE61
:1008A000080E016E060110D00AD002010701066988
:1008B000000135DE07010669000131DE0601000195
:1008C00036DE000E016E060100017AEF04F002012F
:1008D0000B930FC2EFF60EC2EEF60DC2EDF60CC290
:1008E000ECF6020E0601F16FF06BF36B0B0EF26F7C
:1008F00000016FD70150120002010B810F6B0E6BCC
:100900000D6B0C6B9496949A9494948800010FDE6E
:100910000F0E0601246F000110DE0601226B010E8E
:10092000246F00010ADE1EDE9AD601C023F6FFDD29
:100930000601222B223D06D00001F9DD060123C667
:1009400001F05AD023A1EBD7226B010E246F0001D6
:10095000F4DD08DE90D601C023F6E9DD0601222B86
:10096000223D06D00001E3DD060123C601F044D09C
:1009700023B1EBD70001F6DD8BD601C023F695D667
:1009800001C023F6D4DD06012351040804E102016D
:100990000B8503D0060102010B950001E3DD060182
:1009A000276B266B020E256F246B00018BD601C0CE
:1009B00023F60601235306E00001B9DD060123C634
:1009C00001F01AD00001B3DDCDDD0601246B00017A
:1009D0008AD601C023F60601235306E00001A7DDF5
:1009E000060123C601F008D00001A1DD70DF01C0BF
:1009F00023F6060123C601F000018FEF06F0180E62
:100A00000601FB6FFAC6FFF6F9C6FEF6F8C6FDF65C
:100A1000F7C6FCF60001D2DD09DE01501AEF05F041
:100A2000A1DDEFC6FAF6EEC6F9F6EDC6F8F6ECC6AD
:100A3000F7F6E5D701C0F4F60601F45306E000012D
:100A400076DD0601F4C601F055D0FE0E0701066FF3
:100A5000000165DD0601F66BF56BF651F15D14E3FF
:100A600003E1F051F55D10E2F251F525E96EF35125
:100A7000F621EA6EEFCF06F7000151DD010E060107
:100A8000F527000EF623E9D702010BA111D0F3C61A
:100A9000FCF6F2C6FBF6F0C6FDF600015BDE02C016
:100AA000F8F601C0F7F601C006F739DD09D00201FA
:100AB00007010669000133DD0701066900012FDD2A
:100AC000B5DD01C0F4F60601F4510A0B06E00001A1
:100AD0002EDD0601F4C601F00DD007010669000104
:100AE0001EDD0150D8A402D00601F7D720DD000E8C
:100AF000016E0601000192EF05F002010BA315D073
:100B00000B930FC2EFF60EC2EEF60DC2EDF60CC25D
:100B1000ECF6020E0601F16FF06BF36B0B0EF26F49
:100B200000017ED7015004D00201000E016E0001C9
:100B300012000601E76BE451010B016E026A036AC1
:100B4000E351E35DE86F0150E459E96F0250E55964
:100B5000EA6F0350E659EB6FE85102010C5D0FE1BB
:100B60000601E95102010D5D0AE10601EA510201A7
:100B70000E5D05E10601EB5102010F5D1BE00BA3C9
:100B80000CD00001BADF01C0E7F60601E75303E02D
:100B9000E7C601F012D002010B93EBC60FF2EAC6D2
:100BA0000EF2E9C60DF2E8C60CF2000190DE01C0BB
:100BB000E7F602010601E7C601F000011200C8C60F
:100BC000E6F6C7C6E5F6C6C6E4F6C5C6E3F6B1DF87
:100BD00001C0CBF60601CB5303E0CBC601F015D024
:100BE000C651010BCF6FD06BD16B0B0EC525E96ED3
:100BF000000ECF21EA6EEFCFD2F6CAC6EAFFC9C611
:100C0000E9FFD2C6EFFF000E016E00013CEF06F0D7
:100C10000601BE6BBD6BBE51B95D3AE303E1B8514D
:100C2000BD5D36E2B7C6C8F6B6C602F0B5C601F07D
:100C3000B4C600F0010EB427D8B0B52BD8B4B62B8B
:100C4000D8B4B72B02C0C1F601C0C0F600C0BFF6D1
:100C5000BBC603F0BA51BA2BD8B4BB2BC36F03C0C9
:100C6000C4F602C0C7F601C0C6F600C0C5F603C090
:100C7000CAF6C96F0001A3D701C0BCF60601BC5378
:100C800003E0BCC601F006D0BD2BD8B4BE2BC3D741
:100C9000000E016E00011200060122512403F3CF61
:100CA00001F0F4CF00F02503F35000262351240374
:100CB000F3500020026E000112000601D96BDA6BBE
:100CC000010EDB6FDA6AD96A060EDE6FD10EDD6FB8
:100CD000060EEA6ED50EE96EDEC6E2FFDDC6E1FF66
:100CE000DBC6DCF6D890E550EE02F350D923F45081
:100CF000DA23DC2FF7D7D9C6DEFFDAC6D9F6DA6BEE
:100D0000D8B0DA2BDD2BD8B4DE2BDB2BDB5105087A
:100D1000DFE10001120006010D6B0001EDD501506D
:100D200006010D27B76BB66BB56B0B0EB46FB96BC5
:100D3000020EB86F060EBB6F100EBA6F000168DFAF
:100D4000015006010D27B76BB66BB56B0D0EB46F76
:100D5000B96B010EB86F060EBB6F0F0EBA6F0001B4
:100D600057DF015006010D27B76BB66BB56B0E0E42
:100D7000B46FB96B020EB86F060EBB6F120EBA6F6E
:100D8000000146DF015006010D27B76BB66BB56B4E
:100D9000100EB46FB96B010EB86F060EBB6F0E0E5E
:100DA000BA6F000135DF015006010D27B76BB66B36
:100DB000B56B130EB46FB96B020EB86F060EBB6F36
:100DC000140EBA6F000124DF015006010D27B76B26
:100DD000B66BB56B240EB46FB96B040EB86F060E0C
:100DE000BB6F1E0EBA6F000113DF015006010D2705
:100DF000B76BB66BB56B1C0EB46FB96B040EB86FE6
:100E0000060EBB6F160EBA6F000102DF015006011D
:100E10000D27B76BB66BB56B200EB46FB96B040EB4
:100E2000B86F060EBB6F1A0EBA6F0001F1DE0150EB
:100E300006010D27B76BB66B030EB56FEC0EB46FE2
:100E4000B96B040EB86F020EBB6F1C0EBA6F0001B7
:100E5000DFDE015006010D270D5303E0FF0E016E8A
:100E60006DD0236B0FC622F611C625F610C624F6E8
:100E7000000112DF02C011F201C010F210C600F032
:100E800011C601F0026A036A03C025F602C024F607
:100E900011C623F610C622F621C6D4F620C6D3F614
:100EA0001FC6D2F61EC6D1F603C0D8F602C0D7F6CA
:100EB00011C6D6F610C6D5F600DF03C01BF202C07D
:100EC0001AF201C019F200C018F213C623F612C6B6
:100ED00022F611C625F610C624F6DEDE02C013F295
:100EE00001C012F20601D46BD36BD26B0EC6D1F6E1
:100EF0001BC2D8F61AC2D7F619C2D6F618C2D5F652
:100F00000001DBDE005002011225206F0150132189
:100F1000216F000E0220226F000E0320236F10515C
:100F20002025146F11512121156F000E2221166FFB
:100F3000000E2321176F000E016E06010001120042
:100F40000900F55211E0F6CFA2F5F7CFA3F5F8CFDF
:100F5000A4F5F5509EA8FED7AD6EA2C5F6FFA3C5B9
:100F6000F7FFA4C5F8FFECD712000900F6CFC2F5D1
:100F7000F7CFC3F5F8CFC4F5F5509EA8FED7AD6EF8
:100F8000C2C5F6FFC3C5F7FFC4C5F8FF0501C12FF1
:100F900001D002D00001E9D700011200EF5210E0A9
:100FA000EACFC2F5E9CFC1F5EF509EA8FED7AD6EEE
:100FB000C2C5EAFFC1C5E9FFE92AD8B4EA2AEED7DB
:100FC0001200260EF66E010EF76E000EF86E030E7E
:100FD0000501C16F0001C9DF020EEA6E260EE96E3F
:100FE000DDDF3E0E9EA8FED7AD6E200E9EA8FED77A
:100FF000AD6E9CEF32F09EAAFED7ABCF04F0AECF21
:1010000001F004A202D0AB98AB88ABEF32F09EA8FF
:10101000FED7AD6E120076C57AF575C579F57AC53D
:1010200003F0050179C5E9FF7AC5EAFFEF5230E028
:1010300078C57CF577C57BF57CC503F07BC5E9FFFA
:101040007CC5EAFFEF520AE17551795D006E765179
:101050007A59036E00C001F023D010D079C5E9FFA2
:101060007AC5EAFFEFCF7DF57CC503F07BC5E9FFCC
:101070007CC5EAFFEF507D5D01E104D07B2BD8B445
:101080007C2BDAD7792BD8B47A2B0001C8D705018D
:101090007551795D006E76517A59036E00C001F08A
:1010A0000001C6EF08F076C57AF575C579F57AC501
:1010B00003F0050179C5E9FF7AC5EAFFEF522AE09E
:1010C00078C57CF577C57BF57CC503F07BC5E9FF6A
:1010D0007CC5EAFFEF5218E079C5E9FF7AC5EAFF5F
:1010E000EFCF7DF57CC503F07BC5E9FF7CC5EAFF4A
:1010F000EF507D5D05E179C501F07AC502F00DD0B4
:101100007B2BD8B47C2BE0D7792BD8B47A2B000179
:10111000CED70501000E016E026E0001E1EF08F06E
:1011200092C694F691C693F694C603F0060193C650
:10113000E9FF94C6EAFFEF5206E0932BD8B4942B54
:101140000001F2D706019151935D006E92519459BE
:10115000036E00C001F0026E0001120005016D5126
:101160006E1104E06EC503F06D5103D006C003F0AC
:101170000550716F03C072F572C576F571C575F5CE
:1011800070C578F56FC577F5000145D701500501A9
:101190007127000E722372C503F071C5E9FF72C595
:1011A000EAFFEF5204E1000E016E026E31D072C50B
:1011B00076F571C575F570C578F56FC577F50001E1
:1011C00072D702C074F501C073F50501735302E1D3
:1011D00074530DE073C5E9FF74C5EAFFEF6A732B22
:1011E000D8B4742B74C506F073C505F00DD072C564
:1011F00092F671C591F6000193DF0150050171254A
:10120000056E02507221066E71C501F072C502F0C2
:1012100000011200200E0501636F0D0E646F0A0EAF
:10122000656F666B62C56EF561C56DF5050E706F15
:10123000630E6F6F000192DF0250F6EF32F0200E66
:101240000501656F0D0E666F0A0E676F686B220EE3
:10125000696F0D0E6A6F0A0E6B6F6C6B64C503F0DD
:1012600063C5E9FF64C5EAFFEF50200804E1632B82
:10127000D8B4642BF3D764C503F063C5E9FF64C534
:10128000EAFFEF5022080EE164C56EF563C56DF507
:10129000050E706F690E6F6F000160DF02500DD098
:1012A0000CD0050164C56EF563C56DF5050E706F54
:1012B000650E6F6F000152DF02501200A4C5A8F541
:1012C000A3C5A7F5A8C503F00501A7C5E9FFA8C5F3
:1012D000EAFFEF5206E0A72BD8B4A82B0001F2D703
:1012E0000501A6C503F0A5C5E9FFA6C5EAFFEF52B3
:1012F00013E0A5C5E9FFA6C5EAFFEFCFABF5A8C58A
:10130000EAFFA7C5E9FFABC5EFFFA72BD8B4A82B11
:10131000A52BD8B4A62BE5D7A7C5E9FFA8C5EAFF3A
:10132000EF6AA3C501F0A4C502F000011200050197
:101330006EC5E9FF6FC5EAFFEFCF72F571C503F027
:1013400070C5E9FF71C5EAFFEF50725D48E06FC5F7
:1013500003F06EC5E9FF6FC5EAFFEFCF72F572517A
:10136000400803E272515A0806E2725160084CE2EA
:1013700072517A0849E371C503F070C5E9FF71C580
:10138000EAFFEFCF72F57251400803E272515A083A
:1013900006E27251600838E272517A0835E36EC590
:1013A000E9FF6FC5EAFFEFCF72F571C503F070C5B5
:1013B000E9FF71C5EAFF200EEF24725D10E070C5F1
:1013C000E9FF71C5EAFFEFCF72F56FC503F06EC597
:1013D000E9FF6FC5EAFF200EEF24725D15E16FC5CE
:1013E00003F06EC5E9FF6FC5EAFFEF5203E1000E9F
:1013F000016E1FD06FC503F06E516E2BD8B46F2BEA
:10140000702BD8B4712B94D76FC503F06EC5E9FF6C
:101410006FC5EAFFEFCF72F571C503F070C5E9FF44
:1014200071C5EAFFEF50725D02E2FF0E01D0010EBE
:10143000016E000145EF0AF005016D6B6D510A0860
:101440002EE36D510A0DF3506F6B6E6FEE0E6E252D
:10145000016E020E6F21036E01C070F5716F050EF3
:10146000EA6E630EE96E03C0E2FF01C0E1FFE752DE
:10147000E6CFEEFFFCE1050E6F6F630E6E6F62C587
:1014800071F561C570F5000152D7015205E1050102
:101490006DC501F006D0000105016D2BCFD7FF0E01
:1014A000016E000174EF33F00601906B8F6B8F516A
:1014B0000A083CE38F518725916F000E8821926FB7
:1014C000000E8921936F000E8A21946FB76F93C627
:1014D000B6F692C6B5F691C6B4F6B96B010EB86F02
:1014E000060EBB6F8E0EBA6F000108EC06F00152BB
:1014F00003E0FF0E016E72D006018E51200813E04A
:1015000090518B25E96E000E8C21EA6E8E514008B9
:1015100006E28E515A0803E38E51200901D08E5104
:10152000EF6E010E9027010E8F27C1D790518B25AA
:10153000E96E000E8C21EA6EEF6A8D51100844E0CE
:101540008CC692F68BC691F60001EADD02C092F6D7
:1015500001C091F60601925303E19151030834E270
:101560008CC692F68BC691F60001DADD01C090F6CA
:1015700090C68FF6030E0601905D8F5D1DE01CE3A3
:101580008F518B25016E000E8C21036E01C091F6E8
:10159000926F010E8F5D8B25E96E000E8C21EA6E35
:1015A000EFCF93F603C0EAFF01C0E9FF93C6EFFF58
:1015B0008F070001DFD706018F518B25E96E000EE2
:1015C0008C21EA6E2E0EEF6E010E90258B25E96EB2
:1015D000000E8C21EA6EEF6A000E016E000162EFD0
:1015E0000DF0D8B204D0060EEA6EA70EE96E006ABE
:1015F000016A026A036A0601A76BA86BA96BAA6B52
:10160000A651A511A411A3112CE0200EAB6FD89008
:101610009F37A037A137A237A737A837A937AA37EE
:10162000A651AA5D08E1A551A95D05E1A451A85DF7
:1016300002E1A351A75D0FE3A351A75FA451D8A076
:10164000A43DA85FA551D8A0A53DA95FA651D8A0EB
:10165000A63DAA5FD8800036013602360336AB2F8E
:10166000D6D7A7C6EFFFA8C6ECFFA9C6ECFFAAC64F
:10167000ECFF00011200020120510601975D9B6FF3
:1016800002012151060198599C6F02012251060165
:1016900099599D6F0201235106019A599E6FD89264
:1016A000A26F9DC6A1F69CC6A0F69BC69FF6A66B30
:1016B000A56B11C2A4F610C2A3F6000192DF03C00D
:1016C0009EF602C09DF601C09CF600C09BF6020E7D
:1016D00006010024006E000E0120016E000E0220A3
:1016E000026E000E0320036E000112000601986BCB
:1016F000976B966B010E956F9C6B9B6B9A6B996BBE
:1017000093C6E9FF94C6EAFFEFCF00F0ECCF01F0FB
:10171000ECCF02F0ECCF03F00050995D09E10150ED
:101720009A5D06E102509B5D03E103509C5D38E049
:10173000010E9527000E96239723982395359E6FCB
:1017400096359F6F9735A06F9835A16F9E379F375D
:10175000A037A137FC0E9E170201125106019E27E9
:101760000201135106019F23000EA023A123A1C64D
:10177000B7F6A0C6B6F69FC6B5F69EC6B4F6B96B68
:10178000040EB86F060EBB6F990EBA6F000108EC1D
:1017900006F0015203E0FF0E016E10D00601B0D733
:1017A00093C6E9FF94C6EAFF95C6EFFF96C6ECFF25
:1017B00097C6ECFF98C6ECFF000E016E000194EF97
:1017C0000CF0020E0601C95D006E000ECA59016ED2
:1017D000000ECB59026E000ECC59036ED06F02C0C2
:1017E000CFF601C0CEF600C0CDF6D46BD36B11C2DC
:1017F000D2F610C2D1F6D86F02C0D7F601C0D6F625
:1018000000C0D5F600015DEC06F002012051002673
:1018100021510122225102222351032200011200F0
:101820008EC603F006018DC6E9FF8EC6EAFFEFCF34
:1018300093F6ECCF94F6ECCF95F6ECCF96F6965166
:101840000201235D15E311E1060195510201225DBC
:101850000FE30BE1060194510201215D09E305E16B
:10186000060193510201205D03E3000E016EB7D023
:101870008EC603F006018DC6E9FF8EC6EAFFEFCFE4
:101880009FF6ECCFA0F6ECCFA1F6ECCFA2F6EACF14
:1018900098F6E9CF97F6D882060EEA6E990EE96EB1
:1018A000A66BA56B11C2A4F610C2A3F6000199DEC7
:1018B00099C600F09AC601F09BC602F09CC603F0E0
:1018C00098C6EAFF97C6E9FF9CC696F69BC695F6B2
:1018D0009AC694F699C693F60601935364E194531D
:1018E00062E1955360E196535EE18EC603F08DC6CA
:1018F000E9FF8EC6EAFFEFCF97F6ECCF98F6ECCF74
:1019000099F6ECCF9AF60001B6DE03C092F602C05B
:1019100091F601C090F600C08FF6060E0601946F96
:101920008F0E936F0001E2D60150FF0805E1FF0E14
:10193000016E020154D000018EC603F08DC693F6ED
:101940008EC694F692C6CCF691C6CBF690C6CAF671
:101950008FC6C9F6000135DF03C098F602C097F6BE
:1019600001C096F600C095F6010E0201105D006EF2
:10197000000E1159036E005006019525006E0350AC
:101980000120016E000E0220026E000E982194C606
:10199000EAFF93C6E9FF00C0EFFF01C0ECFF02C001
:1019A000ECFFEC6E19D08DC6E9FF8EC6EAFF010E82
:1019B000EF5C006E000EEC58016E000EEC58026EEB
:1019C000000EEC58ED52ED52ED5200C0EFFF01C099
:1019D000ECFF02C0ECFFEC6E000E016E0201000194
:1019E0000BEF0DF0060187C6E9FF88C6EAFFEFCFCF
:1019F00089F6ECCF8AF6ECCF8BF6ECCF8CF61F0E87
:101A0000895F000E8A5B8B5B8C5B060E8E6F890E86
:101A10008D6F000105D70150FF0803E1FF0E016E35
:101A200010D0060187C6E9FF88C6EAFF89C6EFFF26
:101A30008AC6ECFF8BC6ECFF8CC6ECFF000E016E75
:101A4000000112000601806B7CC686F67BC685F617
:101A50007AC684F679C683F6150E835D876F000E0D
:101A60008459886F000E8559896F000E86598A6FD8
:101A7000B76F89C6B6F688C6B5F687C6B4F6B96B31
:101A8000010EB86F060EBB6F820EBA6F000108EC34
:101A900006F0015203E0FF0E016E91D00601825163
:101AA0000F081AE086C68AF685C689F684C688F6C7
:101AB00083C687F67EC68CF67DC68BF682C68DF60B
:101AC0000001F2D40150FF0803E1FF0E016E77D050
:101AD000000E016E74D00601060E886F830E876FAC
:101AE000000180DF0150FF0803E1FF0E016E67D0A7
:101AF000010E06017F6F7F511F083DE37F510B08E8
:101B000003E10E0E7F6F05D07F511A0802E11C0E13
:101B10007F6F7F518325876F000E8421886F000EB1
:101B20008521896F000E86218A6F80517D25016E87
:101B3000000E7E21036E01C08BF68C6F8AC6B7F64D
:101B400089C6B6F688C6B5F687C6B4F6B96B010E77
:101B5000B86F03C0BBF601C0BAF6000108EC06F08E
:101B6000015203E0FF0E016E2AD0020E06017F270C
:101B7000010E8027C0D786C6B7F685C6B6F684C6DE
:101B8000B5F683C6B4F6B96B010EB86F060EBB6F1F
:101B9000810EBA6F000108EC06F0015203E0FF0E5F
:101BA000016E0DD0060181AD97D780517D25E96E7C
:101BB000000E7E21EA6EEF6A000E016E0001120037
:101BC000060179C6E9FF7AC6EAFFEFCF7DF67CC64B
:101BD00003F07BC6E9FF7CC6EAFFEF507D5D15E1AF
:101BE0007AC603F079C6E9FF03C0EAFFEF5203E1CA
:101BF000000E016E1FD07AC603F07951792BD8B44C
:101C00007A2B7B2BD8B47C2BDCD77AC603F079C631
:101C1000E9FF7AC6EAFFEFCF7DF67CC603F07BC60C
:101C2000E9FF7CC6EAFFEF507D5D02E2FF0E01D0C6
:101C3000010E016E0001120093C603F0060192C668
:101C4000E9FF93C6EAFFEFCF94F6ECCF95F6ECCF21
:101C500096F6ECCF97F694379537963797379437B3
:101C6000953796379737FC0E9417020112510601EB
:101C700094270201135106019523000E9623972302
:101C800097C6B7F696C6B6F695C6B5F694C6B4F638
:101C9000B96B040EB86F93C6BBF692C6BAF60001D4
:101CA00008EC06F0015203E0FF0E016E02D0000EB8
:101CB000016E1200E0C6E6F6DFC6E5F6DEC6E4F623
:101CC000DDC6E3F699EC05F001C0E2F60601E25349
:101CD00003E0E2C601F012D0DE51010BE46FE56BC8
:101CE000E66B0B0EDD25E96E000EE421EA6EE1C61F
:101CF000EFFF02010B83000E016E06010001B4EF3D
:101D00000EF00601D76BD66BD751D25D39E303E1F4
:101D1000D151D65D35E2D0C6E0F6CFC602F0CEC6D0
:101D200001F0CDC600F0010ECD27D8B0CE2BD8B42F
:101D3000CF2BD8B4D02B02C0DAF601C0D9F600C040
:101D4000D8F6D4C603F0D351D32BD8B4D42BE96E34
:101D500003C0EAFFEFCFE1F602C0DFF601C0DEF616
:101D600000C0DDF60001A6D701C0D5F60601D553A7
:101D700003E0D5C601F006D0D62BD8B4D72BC4D7F4
:101D8000000E016E0001120006019E35A76F9F35FF
:101D9000A86FA035A96FA135AA6FA737A837A937B3
:101DA000AA37FC0EA717020112510601A72702014C
:101DB00013510601A823000EA923AA23AAC6D0F610
:101DC000A9C6CFF6A8C6CEF6A7C6CDF6D26B040E2E
:101DD000D16F060ED46FA20ED36F000192DF0152B5
:101DE00003E0FF0E016E02D0000E016E120080C6ED
:101DF00084F67FC683F67EC682F67DC681F684C6EB
:101E000088F683C687F682C686F681C685F6060EF4
:101E10000601936F850E926F00010EDF0150FF08DF
:101E200003E1FF0E016E36D084C6A1F683C6A0F68C
:101E300082C69FF681C69EF60601A56BA46BA36BB6
:101E4000A26B0001A1DF0150FF0803E1FF0E016E4C
:101E500021D088C684F687C683F686C682F685C6F4
:101E600081F60601813D01D002D00001D0D7823D2C
:101E700001D002D00001CBD7833D01D002D00001B8
:101E8000C6D784510F08D8B402D00001C0D7000EC5
:101E9000016E00011200040E06018725016E000E7E
:101EA0008821036E01C089F68A6F140E8725E96EBA
:101EB000000E8821EA6EEFCF00F0ECCF01F0ECCFFE
:101EC00002F0ECCF03F08AC6EAFF89C6E9FF00C042
:101ED000EFFF01C0ECFF02C0ECFF03C0ECFF100EEF
:101EE0008725E96E000E8821EA6EEFCF00F0ECCF77
:101EF00001F0ECCF02F0ECCF03F088C6EAFF87C612
:101F0000E9FF00C0EFFF01C0ECFF02C0ECFF03C01F
:101F1000ECFF000121EF14F006019EC6E9FF9FC609
:101F2000EAFFEFCFB0F6ECCFB1F6ECCFB2F6ECCFE4
:101F3000B3F6B037B137B237B337B037B137B2379E
:101F4000B337FC0EB017020112510601B025A86F7D
:101F5000020113510601B121A96F000EB221AA6F2F
:101F6000000EB321AB6FAF6BAE6BAD6BAC6BAF5113
:101F700002011B5DD8A08AD016E10601AE51020114
:101F80001A5DD8A083D00FE10601AD510201195DA1
:101F9000D8A07CD008E118510601AC5DD8A002D0D1
:101FA000020174D002010601AC51A825B06FAD51F9
:101FB000A921B16FAE51AA21B26FAF51AB21B36F5E
:101FC000B76FB2C6B6F6B1C6B5F6B0C6B4F6B96B61
:101FD000040EB86F060EBB6FA00EBA6F000108ECBE
:101FE00006F0015203E0FF0E016E53D0A3C6A7F620
:101FF000A2C6A6F6A1C6A5F6A0C6A4F60601A453DD
:102000003DE1A5533BE1A65339E1A75337E1AC517C
:10201000A827AD51A923AE51AA23AF51AB239EC629
:10202000E9FF9FC6EAFF020112510601A85DB26FE7
:10203000020113510601A959B36F000EAA59B46FDA
:10204000000EAB59B56FB531036EB431026EB331CA
:10205000016EB231006E03320232013200323F0EA5
:10206000031600C0EFFF01C0ECFF02C0ECFF03C08D
:10207000ECFF000E016E00010CD00601040EAC272F
:10208000000EAD23AE23AF2372D70201FF0E016E07
:1020900000011200A1C6CCF6A0C6CBF69FC6CAF6B8
:1020A0009EC6C9F6E1EC0BF003C0C8F602C0C7F645
:1020B00001C0C6F600C0C5F60601C26BC2511F08BA
:1020C0000BE3036AC251A20FE96E060E0320EA6E0B
:1020D000EF6A010EC227F2D7C46BC36BC451020171
:1020E000115D32E308E110510601C35DD8A002D0B2
:1020F00002012AD002010601C351C525C96FC4518E
:10210000C621CA6F000EC721CB6F000EC821CC6F4D
:10211000D06FCBC6CFF6CAC6CEF6C9C6CDF6D26B47
:10212000200ED16F060ED46FA20ED36F0001E9DD31
:10213000015203E0FF0E016E0AD0200E0601C327F4
:10214000000EC423CBD70201000E016E0001120065
:10215000040E06018A25E96E000E8B21EA6EEFCF90
:102160008DF6ECCF8EF6ECCF8FF6ECCF90F61F0EFF
:102170008D178E6B8F6B906B8D536BE18E5369E176
:102180008F5367E1905365E1040E8A25E96E000ED6
:102190008B21EA6EEFCF8DF6ECCF8EF6ECCF8FF67B
:1021A000ECCF90F6140E8A25E96E000E8B21EA6EB4
:1021B000EFCF00F0ECCF01F0ECCF02F0ECCF03F06A
:1021C00000508D5D09E101508E5D06E102508F5D8A
:1021D00003E10350905D3DE0040E8A25E96E000E98
:1021E0008B21EA6EEFCF8DF6ECCF8EF6ECCF8FF62B
:1021F000ECCF90F6200E8D5F000E8E5B8F5B905BB8
:102200001A0E8A25016E000E8B21036E01C091F615
:10221000926F90C6D0F68FC6CFF68EC6CEF68DC61C
:10222000CDF6D26B200ED16F03C0D4F601C0D3F629
:10223000000167DD01520EE0190E06018A25E96EE4
:10224000000E8B21EA6EEF504009EF6EFF0E016E1B
:1022500029D00001040E06018A25E96E000E8B21AB
:10226000EA6EEFCF8DF6ECCF8EF6ECCF8FF6ECCF9B
:1022700090F61F0E8D178E6B8F6B906B1A0E8D253F
:10228000006E000E8E21016E000E8F21000E902137
:102290008A510024E96E8B510120EA6E8CC6EFFF53
:1022A000000E016E00014BEF13F08DC603F0060126
:1022B0008CC6E9FF8DC6EAFFEFCF92F6ECCF93F61E
:1022C000ECCF94F6ECCF95F6010E9227000E9323F7
:1022D00094239523EACF97F6E9CF96F6D882060E97
:1022E000EA6E980EE96E95C6A2F694C6A1F693C65C
:1022F000A0F692C69FF6A66BA56B11C2A4F610C2FB
:10230000A3F60001F1EC0AF098C600F099C601F0BE
:102310009AC602F09BC603F097C6EAFF96C6E9FF8D
:102320009BC695F69AC694F699C693F698C692F609
:102330000601925363E1935361E194535FE1955336
:102340005DE18DC603F08CC6E9FF8DC6EAFFEFCFD5
:1023500097F6ECCF98F6ECCF99F6ECCF9AF6000111
:102360003BEC0BF003C091F602C090F601C08FF673
:1023700000C08EF6060E0601936F8E0E926F00015E
:102380005BDC0150FF0803E1FF0E016E54D0060133
:102390008E3D07D08F3D05D0903D03D0913D01D0BB
:1023A00009D08E3D0CD08F3D0AD0903D08D0915180
:1023B0000F0805E1FF0E016E00013DD006018DC63C
:1023C00003F08CC692F68DC693F691C6CCF690C6F5
:1023D000CBF68FC6CAF68EC6C9F60001E1EC0BF04B
:1023E00093C6EAFF92C6E9FF00C0EFFF01C0ECFF11
:1023F00002C0ECFF03C0ECFF1CD006018CC6E9FF55
:102400008DC6EAFF010EEF24006E000EEC20016E77
:10241000000EEC20026E000EEC20036EED52ED5229
:10242000ED5200C0EFFF01C0ECFF02C0ECFFEC6E0C
:102430000001000E016E120093C699F692C698F63E
:1024400091C697F690C696F699C69DF698C69CF6E4
:1024500097C69BF696C69AF6060E06019F6F9A0ED1
:102460009E6F000159DD0150FF0803E1FF0E016E70
:102470005BD099C6A1F698C6A0F697C69FF696C6F9
:102480009EF69DC6A5F69CC6A4F69BC6A3F69AC664
:10249000A2F67ADC0150FF0803E1FF0E016E44D082
:1024A0009DC6A1F69CC6A0F69BC69FF69AC69EF650
:1024B0000F0E0601A56FA469A369A269000164DC7F
:1024C0000150FF0803E1FF0E016E2ED09DC6A1F65C
:1024D0009CC6A0F69BC69FF69AC69EF6DBDD015011
:1024E000FF0803E1FF0E016E1FD095C603F094C6EE
:1024F0009EF695C69FF69DC6CCF69CC6CBF69BC6AF
:10250000CAF69AC6C9F60001E1EC0BF09FC6EAFFD5
:102510009EC6E9FF00C0EFFF01C0ECFF02C0ECFF68
:1025200003C0ECFF000E016E1200190E0601882593
:10253000E96E000E8921EA6EEFB208D0190E8825E7
:10254000E96E000E8921EA6EEFA459D1180E882594
:10255000E96E000E8921EA6EEF52D8A450D1040E24
:102560008825E96E000E8921EA6EEFCF8AF6ECCF5E
:102570008BF6ECCF8CF6ECCF8DF68D510201175D0A
:10258000D8A081D016E106018C510201165DD8A0B9
:102590007AD00FE106018B510201155DD8A073D0EE
:1025A00008E1145106018A5DD8A002D002016BD067
:1025B0000201020E06019F6F1C0E9E6F0001ACDC33
:1025C0000150FF0803E1FF0E016E1CD11FC2A1F6EE
:1025D0001EC2A0F61DC29FF61CC29EF60F0E06017B
:1025E000A56FA469A369A2690001C4EC0EF00150B3
:1025F000FF0803E1FF0E016E05D11FC2A1F61EC246
:10260000A0F61DC29FF61CC29EF644DD0150FF08D5
:1026100003E1FF0E016EF6D0040E06018825016E5F
:10262000000E8921036E01C08AF68B6F140E882577
:10263000016E000E8921036E01C08CF68D6F1FC2E2
:10264000CCF61EC2CBF61DC2CAF61CC2C9F60001EA
:10265000E1EC0BF08DC6EAFF8CC6E9FF00C0EFFF8E
:1026600001C0ECFF02C0ECFF03C0ECFF8BC6EAFF29
:102670008AC6E9FF00C0EFFF01C0ECFF02C0ECFF1B
:1026800003C0ECFF020189C68BF688C68AF687C6AE
:102690008CF600015DD50150FF0803E1FF0E016ECD
:1026A000B1D0040E06018825016E000E8921036E4B
:1026B00001C08AF68B6F8D6F01C08CF60001F5DDCD
:1026C0000150FF08D8A479D0040E06018825E96ED0
:1026D000000E8921EA6EEFCF8AF6ECCF8BF6ECCFB5
:1026E0008CF6ECCF8DF6200E8A5F000E8B5B8C5B38
:1026F0008D5B010E8A27000E8B238C238D231A0EEF
:102700008825016E000E8921036E01C08EF68F6F41
:102710008DC6D0F68CC6CFF68BC6CEF68AC6CDF661
:10272000D26B200ED16F03C0D4F601C0D3F60001E6
:1027300081EC0EF001520EE0190E06018825E96EBB
:10274000000E8921EA6EEF504009EF6EFF0E016E18
:10275000000158D0040E06018825E96E000E89217B
:10276000EA6EEFCF97F6ECCF98F6ECCF99F6ECCF78
:102770009AF600013BEC0BF003C093F602C08CF616
:1027800001C091F600C08AF6040E06018825016E8C
:10279000000E8921036E01C08EF68F6F02C092F683
:1027A00000C090F6956F01C094F6000145DE01501F
:1027B000FF0803E1FF0E016E25D0100E06018825EB
:1027C000E96E000E8921EA6E010EEF24006E000E04
:1027D000EC20016E000EEC20026E000EEC20ED529B
:1027E000ED52ED5200C0EFFF01C0ECFF02C0ECFF64
:1027F000EC6E87C601F0000105D004D00601FF0E83
:10280000016E000112007EC603F006017DC6E9FFDD
:102810007EC6EAFFEFCF87F6ECCF88F6ECCF89F6DD
:10282000ECCF8AF6875311E188530FE189530DE10C
:102830008A530BE17CC688F67BC687F600014BEF16
:102840000FF0000E016ED7D10601190E7B25E96E3F
:10285000000E7C21EA6EEFB208D0190E7B25E96EDE
:10286000000E7C21EA6EEFA466D0100E7B25E96E87
:10287000000E7C21EA6EEFCF87F6ECCF88F6ECCF26
:1028800089F6ECCF8AF67DC6E9FF7EC6EAFFEFCF78
:1028900000F0ECCF01F0ECCF02F0ECCF03F08A5166
:1028A000035C49E30BE18951025C45E307E1885190
:1028B000015C41E303E10050875D3DE2100E7B25A2
:1028C000E96E000E7C21EA6EEFCF87F6ECCF88F63A
:1028D000ECCF89F6ECCF8AF67DC6E9FF7EC6EAFF2B
:1028E000EFCF00F0ECCF01F0ECCF02F0ECCF03F033
:1028F0008A51035C1BE30BE18951025C17E307E19A
:102900008851015C13E303E10050875D0FE2876BA0
:102910007CC689F67BC688F6000107DE0150FF08F9
:1029200003E1FF0E016E67D10601C8D7000E016EEC
:10293000000161D106017EC603F07DC6E9FF7EC6B7
:10294000EAFFEFCF9FF6ECCFA0F6ECCFA1F6ECCFED
:10295000A2F6EACF8CF6E9CF8BF6D892A66BA56BE0
:1029600011C2A4F610C2A3F60001F1EC0AF08CC665
:10297000EAFF8BC6E9FF03C086F602C085F601C0F8
:1029800084F600C083F6140E06017B25E96E000E66
:102990007C21EA6EEFCF97F6ECCF98F6ECCF99F664
:1029A000ECCF9AF600013BEC0BF003C082F602C0BC
:1029B00081F601C080F600C07FF60601835306E170
:1029C000845304E1855302E1865314E0060E936FAD
:1029D0007F0E926F00011CEC0EF0015203E0FF0E1F
:1029E000016E09D1010E0601835F000E845B855BD9
:1029F000865BE4D7040E7B25016E000E7C21036EFE
:102A000001C087F6886F82C6CCF681C6CBF680C639
:102A1000CAF67FC6C9F60001E1EC0BF088C6EAFFF2
:102A200087C6E9FF00C0EFFF01C0ECFF02C0ECFF6A
:102A300003C0ECFF040E06017B25016E000E7C2115
:102A400001C087F6886FEA6E01C0E9FFEFCF89F613
:102A5000ECCF8AF6ECCF8BF6ECCF8CF67EC603F08B
:102A60007DC6E9FF7EC6EAFFEFCF9FF6ECCFA0F66A
:102A7000ECCFA1F6ECCFA2F6EACF92F6E9CF91F631
:102A8000D882060EEA6E930EE96EA66BA56B11C294
:102A9000A4F610C2A3F60001F1EC0AF093C600F010
:102AA00094C601F095C602F096C603F092C6EAFFFE
:102AB00091C6E9FF0601895100268A5101228B51F6
:102AC00002228C51032288C6EAFF87C6E9FF00C0B4
:102AD000EFFF01C0ECFF02C0ECFF03C0ECFF190EDA
:102AE0007B25E96E000E7C21EA6EEFA063D0100E0C
:102AF0007B25E96E000E7C21EA6EEFCF89F6ECCFE4
:102B00008AF6ECCF8BF6ECCF8CF67DC6E9FF7EC65D
:102B1000EAFFEFCF00F0ECCF01F0ECCF02F0ECCF0A
:102B200003F00050895D006E01508A59016E025019
:102B30008B59026E03508C597CC6EAFF7BC6E9FFB5
:102B400000C0EFFF01C0ECFF02C0ECFFEC6E040E12
:102B50007B25E96E000E7C21EA6EEFCFB4F6ECCF58
:102B6000B5F6ECCFB6F6ECCFB7F61A0E7B25016EB4
:102B7000000E7C21036E01C08BF68C6FB96B200EAA
:102B8000B86F03C0BBF601C0BAF6000108EC06F04E
:102B900001520EE0190E06017B25E96E000E7C2124
:102BA000EA6EEF502009EF6EFF0E016E000123D098
:102BB00020D00601100E7B25016E000E7C2101C085
:102BC00087F67DC6E9FF7EC6EAFFEFCF00F0ECCFC7
:102BD00001F0ECCF02F0ECCF03F0EA6E87C6E9FF1C
:102BE00000C0EFFF01C0ECFF02C0ECFF03C0ECFF30
:102BF0000001000E016E1200060179C6E9FF7AC6D7
:102C0000EAFFEFCF7BF6ECCF7CF6ECCF7DF6ECCF96
:102C10007EF61F0E7B27000E7C237D237E23060E6F
:102C20008D6F7B0E8C6F000155EC11F00150FF0889
:102C300003E1FF0E016E10D0060179C6E9FF7AC6E6
:102C4000EAFF7BC6EFFF7CC6ECFF7DC6ECFF7EC6CD
:102C5000ECFF000E016E000112000601546B140E11
:102C60005025E96E000E5121EA6EEFCF55F6ECCFFC
:102C700056F6ECCF57F6ECCF58F658C6B7F657C60F
:102C8000B6F656C6B5F655C6B4F6B96B010EB86FB2
:102C9000060EBB6F530EBA6F000108EC06F0015030
:102CA000060154270B0E5525796F000E56217A6FB9
:102CB000000E57217B6F000E58217C6FB76F7BC6CB
:102CC000B6F67AC6B5F679C6B4F6B96B010EB86F2A
:102CD000060EBB6F520EBA6F000108EC06F00150F1
:102CE0000601542754530CE0190E5025E96E000ECE
:102CF0005121EA6EEF502009EF6EFF0E016E13D3E3
:102D00005351E508D8B4F0D24F51525DD8A4ECD25B
:102D100058C67CF657C67BF656C67AF655C679F67F
:102D2000060E7E6F590E7D6F000122EC0DF00150F2
:102D3000FF0805E1FF0E016E0601F5D200014EC647
:102D40007AF64DC679F6060E06017C6F590E7B6F3A
:102D50000001E0EC0DF00152D8A4C7D20C0E060120
:102D60005025016E000E5121036E01C079F67A6F75
:102D7000140E5025E96E000E5121EA6EEFCF00F0DF
:102D8000ECCF01F0ECCF02F0ECCF03F07AC6EAFF13
:102D900079C6E9FF00C0EFFF01C0ECFF02C0ECFF05
:102DA00003C0ECFF1C0E5525796F000E56217A6F7B
:102DB000000E57217B6F000E58217C6F100E50259E
:102DC000016E000E5121036E01C07DF67E6F7CC640
:102DD000B7F67BC6B6F67AC6B5F679C6B4F6B96B61
:102DE000040EB86F03C0BBF601C0BAF6000108ECD0
:102DF00006F0015006015427140E5525796F000E78
:102E000056217A6F000E57217B6F000E58217C6F80
:102E1000140E5025016E000E5121036E01C07DF687
:102E20007E6F020E7D27000E7E237CC6B7F67BC622
:102E3000B6F67AC6B5F679C6B4F6B96B020EB86FB7
:102E40007EC6BBF67DC6BAF6000108EC06F001505E
:102E5000060154271A0E5525796F000E56217A6FF8
:102E6000000E57217B6F000E58217C6F140E5025E9
:102E7000016E000E5121036E01C07DF67E6F7CC68F
:102E8000B7F67BC6B6F67AC6B5F679C6B4F6B96BB0
:102E9000020EB86F03C0BBF601C0BAF6000108EC21
:102EA00006F001500601542754530CE0190E50252A
:102EB000E96E000E5121EA6EEF502009EF6EFF0E11
:102EC000016E31D2140E5025016E000E5121036E99
:102ED00001C079F67A6F140E5025E96E000E51216B
:102EE000EA6EEFCFC9F6ECCFCAF6ECCFCBF6ECCF5B
:102EF000CCF60001E1EC0BF07AC6EAFF79C6E9FFF7
:102F000000C0EFFF01C0ECFF02C0ECFF03C0ECFF0C
:102F1000080E06015025E96E000E5121EA6E55C6D5
:102F2000EFFF56C6ECFF57C6ECFF58C6ECFF100E7D
:102F30005025E96E000E5121EA6EEFCF00F0ECCF84
:102F400001F0ECCF02F0ECCF03F051C6EAFF50C61F
:102F5000E9FF00C0EFFF01C0ECFF02C0ECFF03C0BF
:102F6000ECFF4F512008D8A4B4D1180E5025E96EBB
:102F7000000E5121EA6EEF6A190E5025E96E000E1F
:102F80005121EA6EEFA27CD0100E5025E96E000EA2
:102F90005121EA6EEE52EE52EC6AED52EF6AED52BA
:102FA000EF6AED52EF6A000E51C6EAFF50C6E9FF24
:102FB00000C0EFFF50C6ECFF02C0ECFF51C6ECFFB3
:102FC000140E5025E96E000E5121EA6EEFCF79F60E
:102FD000ECCF7AF6ECCF7BF6ECCF7CF60201175102
:102FE00006017C5D3CE311E10201165106017B5DA7
:102FF00036E30BE10201155106017A5D30E305E18C
:10300000020114510601795D2AE3140E5025E96E80
:10301000000E5121EA6EEFCF97F6ECCF98F6ECCF89
:1030200099F6ECCF9AF600013BEC0BF003C07CF66E
:1030300002C07BF601C07AF600C079F603C080F6C4
:1030400002C07FF601C07EF600C07DF6F7EC0EF000
:103050000150FF0805E1FF0E016E060164D1000179
:10306000040E06015025E96E000E5121EA6EEE5263
:10307000EE52EC6AED52EF6AED52EF6AED52EF6AF2
:10308000190E5025E96E000E5121EA6EEFA4C3D04F
:10309000100E5025E96E000E5121EA6EEFCF79F641
:1030A000ECCF7AF6ECCF7BF6ECCF7CF6795307E1E8
:1030B0007A5305E17B5303E17C53D8B4ACD0100EB6
:1030C0005025016E000E5121036E01C079F67A6F12
:1030D00051C67CF650C67BF67E6F01C07DF60001BE
:1030E00003EC14F001C054F6040E06015025E96EFD
:1030F000000E5121EA6EEFCF79F6ECCF7AF6ECCFE5
:103100007BF6ECCF7CF61F0E79177A6B7B6B7C6BB2
:10311000795339E17A5337E17B5335E17C5333E11D
:10312000040E5025E96E000E5121EA6EEFCF79F6BC
:10313000ECCF7AF6ECCF7BF6ECCF7CF6200E795F05
:10314000000E7A5B7B5B7C5B1A0E5025016E000ED5
:103150005121036E01C07DF67E6F7CC6B7F67BC63B
:10316000B6F67AC6B5F679C6B4F6B96B200EB86F66
:1031700003C0BBF601C0BAF6000108EC06F001502E
:103180000601542748D0040E5025E96E000E512147
:10319000EA6EEFCF79F6ECCF7AF6ECCF7BF6ECCF98
:1031A0007CF6040E5025E96E000E5121EA6EEFCF39
:1031B0007DF6ECCF7EF6ECCF7FF6ECCF80F67D513E
:1031C0001F0B006E016A026A036A0050795F0150AA
:1031D0007A5B02507B5B03507C5B1A0E5025016EBC
:1031E000000E5121036E01C07DF67E6F7CC6B7F6DE
:1031F0007BC6B6F67AC6B5F679C6B4F6B96B200EBC
:10320000B86F03C0BBF601C0BAF6000108EC06F0C7
:10321000015006015427190E5025E96E000E512168
:10322000EA6EEFA047D0040E5025016E000E51212A
:10323000036E01C079F67A6F140E5025E96E000E08
:103240005121EA6EEFCF00F0ECCF01F0ECCF02F0AD
:10325000ECCF03F07AC6EAFF79C6E9FF00C0EFFFC2
:1032600001C0ECFF02C0ECFF03C0ECFF040E5025D0
:10327000E96E000E5121EA6EEFCFB4F6ECCFB5F651
:10328000ECCFB6F6ECCFB7F61A0E5025016E000E55
:103290005121036E01C07DF67E6FB96B200EB86FB1
:1032A00003C0BBF601C0BAF6000108EC06F001C08D
:1032B00054F6060154530CE0190E5025E96E000E29
:1032C0005121EA6EEF502009EF6EFF0E016E2BD0F8
:1032D00008D0180E5025E96E000E5121EA6E010E3D
:1032E000EF6E000E016E1FD00001060E06017A6F10
:1032F000550E796F000180DC0150FF0805E1FF0EDB
:10330000016E060110D0000106015353D8A4B5D4B4
:10331000190E5025E96E000E5121EA6EEF5080091A
:10332000EF6EFF0E016E00011200190E0501EE2571
:10333000E96E000EEF21EA6EEFB208D0190EEE250D
:10334000E96E000EEF21EA6EEFA4B8D0040EEE2570
:10335000E96E000EEF21EA6EEFCFF0F5ECCFF1F55C
:10336000ECCFF2F5ECCFF3F51F0EF017F16BF26B2B
:10337000F36BF05348E1F15346E1F25344E1F35368
:1033800042E1040EEE25E96E000EEF21EA6EEFCF6A
:10339000F0F5ECCFF1F5ECCFF2F5ECCFF3F5200E34
:1033A000F05F000EF15BF25BF35B1A0EEE25016E2F
:1033B000000EEF21036E01C0F4F5F56FF3C5D0F6F2
:1033C000F2C5CFF6F1C5CEF6F0C5CDF60601D26B4B
:1033D000200ED16F03C0D4F601C0D3F6000181ECFA
:1033E0000EF001520EE0190E0501EE25E96E000EF9
:1033F000EF21EA6EEF504009EF6EFF0E016E60D0D4
:10340000000157D00501040EEE25E96E000EEF21F4
:10341000EA6EEFCFF0F5ECCFF1F5ECCFF2F5ECCFB3
:10342000F3F5040EEE25E96E000EEF21EA6EEFCF04
:10343000F4F5ECCFF5F5ECCFF6F5ECCFF7F5F4516C
:103440001F0B006E016A026A036A0050F05F0150B0
:10345000F15B0250F25B0350F35B1A0EEE25016E36
:10346000000EEF21036E01C0F4F5F56FF3C5D0F641
:10347000F2C5CFF6F1C5CEF6F0C5CDF60601D26B9A
:10348000200ED16F03C0D4F601C0D3F6000181EC49
:103490000EF001520EE0190E0501EE25E96E000E48
:1034A000EF21EA6EEF504009EF6EFF0E016E08D07B
:1034B00000017DEC05F00150050102D0000E016E07
:1034C0000001A6EF1BF00501E96B190EE725E96E77
:1034D000000EE821EA6EEFB208D0190EE725E96E7A
:1034E000000EE821EA6EEFA438D1080EE725E96E58
:1034F000000EE821EA6EEFCFEEF5ECCFEFF5ECCF62
:10350000F0F5ECCFF1F51C0EEE27000EEF23F023C3
:10351000F123100EE725016E000EE821036E01C0B5
:10352000F2F5F36FF1C5D0F6F0C5CFF6EFC5CEF6E4
:10353000EEC5CDF60601D26B040ED16F03C0D4F6F2
:1035400001C0D3F6000181EC0EF001520EE0190E1D
:103550000501E725E96E000EE821EA6EEF5040090B
:10356000EF6EFF0E016E40D10001080E0501E72548
:10357000E96E000EE821EA6EEFCFEEF5ECCFEFF545
:10358000ECCFF0F5ECCFF1F5140EEE27000EEF23A3
:10359000F023F123F1C5B7F6F0C5B6F6EFC5B5F6E1
:1035A000EEC5B4F60601B96B020EB86F050EBB6F1F
:1035B000EC0EBA6F000108EC06F001500501E92796
:1035C000080EE725E96E000EE821EA6EEFCFEEF572
:1035D000ECCFEFF5ECCFF0F5ECCFF1F51A0EEE27CE
:1035E000000EEF23F023F123F1C5B7F6F0C5B6F6D0
:1035F000EFC5B5F6EEC5B4F60601B96B020EB86FAD
:10360000050EBB6FEA0EBA6F000108EC06F0015020
:103610000501E927E9530CE0190EE725E96E000ED4
:10362000E821EA6EEF502009EF6EFF0E016EDCD04C
:10363000EA53D8A485D0EB53D8A482D0EC53D8A4B5
:103640007FD0ED53D8A47CD0140EE725E96E000E90
:10365000E821EA6EEFCF97F6ECCF98F6ECCF99F62B
:10366000ECCF9AF600013BEC0BF003C0EDF502C085
:10367000ECF501C0EBF500C0EAF5080E0501E72501
:10368000E96E000EE821EA6EEFCFEEF5ECCFEFF534
:10369000ECCFF0F5ECCFF1F5140EEE27000EEF2392
:1036A000F023F123F1C5D0F6F0C5CFF6EFC5CEF685
:1036B000EEC5CDF60601D26B020ED16F050ED46FAA
:1036C000EC0ED36F000181EC0EF001500501E927EB
:1036D000080EE725E96E000EE821EA6EEFCFEEF561
:1036E000ECCFEFF5ECCFF0F5ECCFF1F51A0EEE27BD
:1036F000000EEF23F023F123F1C5D0F6F0C5CFF68D
:10370000EFC5CEF6EEC5CDF60601D26B020ED16F37
:10371000050ED46FEA0ED36F000181EC0EF001505C
:103720000501E927E9530CE0190EE725E96E000EC3
:10373000E821EA6EEF504009EF6EFF0E016E54D0A3
:10374000E8C5EFF5E7C5EEF50001EFD50150FF083C
:1037500005E1FF0E016E050147D00001040E0501D1
:10376000E725E96E000EE821EA6EEE52EE52EC6AB1
:10377000ED52EF6AED52EF6AED52EF6A080EE7255F
:10378000E96E000EE821EA6EEE52EE52EC6AED525E
:10379000EF6AED52EF6AED52EF6A100EE725E96E1F
:1037A000000EE821EA6EEE52EE52EC6AED52EF6A3C
:1037B000ED52EF6AED52EF6A140EE725E96E000E46
:1037C000E821EA6EEE52EE52EC6AED52EF6AED52EB
:1037D000EF6AED52EF6A190EE725E96E000EE82157
:1037E000EA6EEF6A000E016E00011200E50E05019F
:1037F000A66F720EAB6FAC6BA4C5EBF5A3C5EAF573
:10380000050EED6FAB0EEC6F050EEF6FAD0EEE6FAC
:10381000000100EC80F00150FF0803E1FF0E016E93
:10382000EED0020123510501C45D39E314E1020128
:1038300022510501C35D33E30EE10201215105016F
:10384000C25D2DE308E1C1510201205DD8A002D084
:10385000050125D00501C4C59AF6C3C599F6C2C5B0
:1038600098F6C1C597F600013BEC0BF003C0EAF5F2
:1038700002C0E9F501C0E8F500C0E7F503C080F635
:1038800002C07FF601C07EF600C07DF6F7EC0EF0B8
:103890000150FF0803E1FF0E016EB1D00501B8C56C
:1038A000AAF5B7C5A9F5B6C5A8F5B5C5A7F5AAC5C2
:1038B000D0F6A9C5CFF6A8C5CEF6A7C5CDF60601A8
:1038C000D26B010ED16F050ED46FA60ED36F00011F
:1038D00081EC0EF00150FF0803E1FF0E016E8FD066
:1038E000050E0601886FA70E876F0001F2EC0CF041
:1038F0000B0E0501A725E76F000EA821E86F000E4B
:10390000A921E96F000EAA21EA6FE8CFB7F6E9C551
:10391000B6F6E8C5B5F6E7C5B4F60601B96B010E13
:10392000B86F050EBB6FA50EBA6F000108EC06F06C
:103930000150FF0803E1FF0E016E61D00501A551A2
:103940000F084FE1AAC5D0F6A9C5CFF6A8C5CEF697
:10395000A7C5CDF60601D26B010ED16F050ED46F4F
:10396000A60ED36F000181EC0EF00150FF0803E1B9
:10397000FF0E016E44D0050E0601886FA70E876FFB
:103980000001F2EC0CF00150FF0803E1FF0E016EA4
:1039900036D00B0E0501A725E76F000EA821E86FB2
:1039A000000EA921E96F000EAA21EA6FE8CFB7F651
:1039B000E9C5B6F6E8C5B5F6E7C5B4F60601B96BD4
:1039C000010EB86F050EBB6FA50EBA6F000108ECB3
:1039D00006F00150FF0803E1FF0E016E10D0AED7D4
:1039E0000501050EE86FAD0EE76F00016CDD0150BB
:1039F000FF0803E1FF0E016E02D0000E016E1200FF
:103A00002E0EF66E010EF76E000EF86E0C0E05010E
:103A1000C16F0001B5EC07F062C5EAFF61C5E9FFBF
:103A2000CEEC07F03C0EF66E010EF76E000EF86E4F
:103A3000030E0501C16F0001B5EC07F062C5A4F5E6
:103A400061C5A3F5D3DE015209E0400EF66E010E0A
:103A5000F76E000EF86EA0EC07F008D04F0E9EA88F
:103A6000FED7AD6E4B0E9EA8FED7AD6E01EF34F0C3
:103A70000501EE6BED6BEBC503F0EAC5E9FFEBC5A5
:103A8000EAFFEC51EF5C04E1EBC5EEF5EAC5EDF5BC
:103A9000EBC503F0EAC5E9FFEBC5EAFFEF5205E12C
:103AA000EDC501F0EEC502F004D0EA2BD8B4EB2B43
:103AB000E2D7000112000601286B28512625E96E85
:103AC000000E2721EA6EEF522CE028511F0829E34F
:103AD00028512625E96E000E2721EA6EEFCF29F640
:103AE0002951220818E029512A0815E029512F08E8
:103AF00012E029513A080FE029513C080CE0295105
:103B00003D0803E229513F0806E229515C0803E021
:103B100029517C0803E1FF0E016E05D0010E282714
:103B2000CCD7000E016E00018FEF21F05AC603F0D2
:103B3000060159C6E9FF5AC6EAFF5B51EF5C12E085
:103B40005AC603F059C6E9FF5AC6EAFFEF5204E12C
:103B5000000E016E026E0AD0592BD8B45A2B000108
:103B6000E5D7060159C601F05AC602F0000112005D
:103B700025C2EAFF24C2E9FF060165C6EFFFE92A74
:103B8000D8B4EA2AEF6A0201242BD8B4252B00010D
:103B90001200E95006015D6F3B0E646F9A0E636F71
:103BA000CA0E626F616B0A0E5F6FD882060EEA6EF4
:103BB000590EE96E5CC6A2F65BC6A1F65AC6A0F61F
:103BC00059C69FF664C6A6F663C6A5F662C6A4F6F5
:103BD00061C6A3F60001F1EC0AF00150005213E1B6
:103BE00006015F51010AD8A402D000010CD05D513A
:103BF0000CE00F0B5F5D01E00FE25DBF0DD05DBD1E
:103C000004D0200E03D006015D6B300E002600C0EC
:103C100065F60001ADDF0601D89264C6A2F663C660
:103C2000A1F662C6A0F661C69FF6A66BA56BA46B53
:103C30000A0EA36F0001F1EC0AF003C064F602C0A3
:103C400063F601C062F600C061F606015F2FADD7D2
:103C5000000170EF1FF0200E06012E6F2F6F306FE6
:103C6000316F326F336F346F356F366F376F386F38
:103C7000396B3A6F3B6F3C6F3D6F3E6F3F6F406FEC
:103C8000416F426F436F446F456B466F476F486F9C
:103C9000496F4A6F4B6F4C6B4F6B506B546B536B50
:103CA000526B516B2BC65AF62AC659F62E0E5B6F15
:103CB00000013CDF01C04EF606014E5346E1505173
:103CC000070842E34F512A25E96E000E2B21EA6EC8
:103CD000EF523AE0036A50512E0F016E060E032296
:103CE00001C059F603C05AF64F512A25E96E000E5D
:103CF0002B21EA6EEFCF5BF65B51600806E25B5169
:103D00007A0803E35B51DF0B01D05B515AC6EAFF2F
:103D100059C6E9FFEF6E010E50274F274F512A2554
:103D2000E96E000E2B21EA6EEF502E0809E04F518C
:103D30002A25E96E000E2B21EA6EEF50200803E1E0
:103D4000010E4F27EBD7BBD757D0010E2A5D006E6F
:103D5000000E2B5900504E5F50510A084DE34F5151
:103D60002A25E96E000E2B21EA6EEF5245E0036A28
:103D700050512E0F016E060E032201C059F603C0EA
:103D80005AF64F512A25E96E000E2B21EA6EEFCF2D
:103D90005BF65B51600806E25B517A0803E35B5116
:103DA000DF0B01D05B515AC6EAFF59C6E9FFEF6E3F
:103DB000010E50274F274F512A25E96E000E2B2167
:103DC000EA6EEF502E0809E04F512A25E96E000EE9
:103DD0002B21EA6EEF50200803E1010E4F27EBD7AD
:103DE0004E514F5D03E1080E506F05D05051080849
:103DF00002E14EC64FF6B0D729C658F628C657F688
:103E000027C656F626C655F60B0E5525596F000ED9
:103E100056215A6F000E57215B6F000E58215C6FC0
:103E2000B76F5BC6B6F65AC6B5F659C6B4F6B96BE7
:103E3000010EB86F060EBB6F4D0EBA6F000108EC95
:103E400006F0015203E0FF0E016E39D106014D5319
:103E5000D8B408D14D51200804E04D511008D8A421
:103E6000A8D058C6B7F657C6B6F656C6B5F655C664
:103E7000B4F6B96B0B0EB86F060EBB6F3A0EBA6F85
:103E8000000108EC06F0015203E0FF0E016E17D1AD
:103E90000601456B060E7A6F3A0E796F060E7C6F3F
:103EA0002E0E7B6F0001E0EC0DF00152D8A482D001
:103EB000010E06015127000E522353235423060EF0
:103EC0000201256F460E246F410EE96E54C65CF662
:103ED00053C65BF652C65AF651C659F6000159D67A
:103EE00006014F6B060E5A6F2E0E596F200E5B6F38
:103EF00000011CDE01C050F6060150530FE1060E12
:103F0000926F460E916F000190EC08F002C003F032
:103F10000150FF0A080F0601506F02D0300E505FAB
:103F20000A0E4D6F545307E1535305E1525303E119
:103F30004D51515D07E3010E505F4D510A0DF3CF16
:103F40004DF6F0D7036A50512E0FE96E060E03208E
:103F5000EA6E7E0EEF6E010E5027036A4F51460F38
:103F6000E96E060E0320EA6EEF521BE0036A505121
:103F70002E0F016E060E032203C05AF6036A4F513C
:103F8000460FE96E060E0320EA6EEFCF5BF65AC6C7
:103F9000EAFF01C0E9FF5BC6EFFF010E50274F2784
:103FA000DCD729C658F628C657F627C656F626C6C1
:103FB00055F60001060E06017A6F550E796F000165
:103FC000FCEC15F00150FF0828E158C69AF657C6D8
:103FD00099F656C698F655C697F63BEC0BF003C01B
:103FE0005CF602C05BF601C05AF600C059F603C089
:103FF00093F602C092F601C091F600C090F6060E4C
:104000000601956F550E946F00011CEC12F00150E3
:10401000FF0803E1FF0E016E52D00B0E060155257D
:10402000596F000E56215A6F000E57215B6F000E1C
:1040300058215C6FB76F5BC6B6F65AC6B5F659C65F
:10404000B4F6B96B010EB86F060EBB6F4D0EBA6FAA
:10405000000108EC06F0015203E0FF0E016E2FD0C4
:10406000F5D60601586B576B566B556B585325E1C7
:10407000575323E1565321E155510B081EE32C51B0
:104080005525016E2D515621036E01C059F65A6F08
:104090002E0E5525E96E060E5621EA6EEFCF5BF621
:1040A00003C0EAFF01C0E9FF5BC6EFFF010E552721
:1040B000000E562357235823D9D7000E016E000156
:1040C000A8EF21F00601296B0B0E286F285318E08A
:1040D00029A102D0800E01D0000E2A6FD89029317C
:1040E0002A2727C603F02651262BD8B4272BE96EA2
:1040F00003C0EAFFEF502A25296F010E285FE6D79B
:1041000029C601F00001B5EF21F0060126C6E9FF3E
:1041100027C6EAFFEFCF29F6ECCF2AF6ECCF2BF635
:10412000ECCF2CF62CC6B7F62BC6B6F62AC6B5F6DB
:1041300029C6B4F6B96B010EB86F060EBB6F280E18
:10414000BA6F000108EC06F0015203E0FF0E016EA9
:1041500064D00601285352E01F0E2927000E2A239F
:104160002B232C23060E8D6F290E8C6F000155EC2E
:1041700011F00150FF0828E12CC69AF62BC699F6DB
:104180002AC698F629C697F63BEC0BF003C030F62A
:1041900002C02FF601C02EF600C02DF603C093F624
:1041A00002C092F601C091F600C090F6060E06011C
:1041B000956F290E946F00011CEC12F00150FF085E
:1041C00003E1FF0E016E29D02CC6B7F62BC6B6F65A
:1041D0002AC6B5F629C6B4F60601B96B010EB86F4A
:1041E000060EBB6F280EBA6F000108EC06F00152F4
:1041F00003E0FF0E016E11D0ACD7060126C6E9FF21
:1042000027C6EAFF29C6EFFF2AC6ECFF2BC6ECFF44
:104210002CC6ECFF000E016E0001120006012651B3
:104220002719800B296F26AF02D0261F262B27AF18
:1042300002D0271F272B2751016A265D03E226C6DD
:1042400000F00CD0006A080E286F26370036275180
:10425000005CD8B0006E0136282FF7D729AF02D006
:10426000011E012A0001120029C62AF606012A5160
:104270000C0847E32A51040815E3D8902A35010FAA
:104280002625E96E000E2721EA6E28C6EFFFD8909A
:104290002A35020F2625E96E000E2721EA6E28C670
:1042A000EFFF2CD02A510A0815E3D8902A35040FC5
:1042B0002625E96E000E2721EA6E28C6EFFFD8906A
:1042C0002A35050F2625E96E000E2721EA6E28C63D
:1042D000EFFF14D0D8902A35060F2625E96E000E80
:1042E0002721EA6E28C6EFFFD8902A35070F26252A
:1042F000E96E000E2721EA6E28C6EFFF010E2A277D
:10430000B6D7000112000501FE6B010E0601216FF8
:10431000F1C527F6F0C526F600015BEF1DF0015050
:10432000FF0803E1FF0E016E77D1EDC529F6ECC55C
:1043300028F6EBC527F6EAC526F6F1C52BF6F0C53B
:104340002AF6050E06012D6FF20E2C6F000183D4A4
:104350000150FF0803E1FF0E016E5ED1050E06015C
:10436000276FF20E266F0001ADD601C0FFF50601E2
:10437000206B20511F0808E320C6E9FF060EEA6EF5
:10438000EF6A010E2027F5D7EDC525F6ECC524F61A
:10439000EBC523F6EAC522F6060E276F220E266F1E
:1043A0000001B3DE0150FF0803E1FF0E016E34D1BE
:1043B0000F0E06010B6FF1C592F6F0C591F60001E4
:1043C00090EC08F001C0FEF5FEC526F60D0E0601C4
:1043D000276F000123DF00C0FEF50501FE530CE04E
:1043E000010EFE27060E0601276F266B2869FEC503
:1043F00029F6000139DF0501F1C592F6F0C591F605
:10440000000190EC08F001C0FEF5FEC526F60D0E89
:104410000601276F000102DF010E01240601216F52
:10442000FEC526F60D0E276F0001F8DE005204E1EE
:10443000010E0601215F00010601218D0501FEBF6D
:10444000C3D0FEC526F60D0E0601276F0001E6DE7D
:1044500000C020F606012051040820E3D890203542
:10446000010F036A016E060E032601C026F603C083
:1044700027F6036A0501FE51006EE8BE0306F0252B
:10448000E96EF1510320EA6EEFCF28F6060127C648
:10449000EAFF01C0E9FF28C6EFFF3FD020510A081C
:1044A00020E3D8902035040F036A016E060E032620
:1044B00001C026F603C027F6036A0501FE51006E0F
:1044C000E8BE0306F025E96EF1510320EA6EEFCF56
:1044D00028F6060127C6EAFF01C0E9FF28C6EFFF5C
:1044E0001CD0D8902035060F036A016E060E0326F5
:1044F00003C027F6036A0501FE51E8BE0306F02556
:10450000E96EF1510320EA6EEFCF28F6060127C6C7
:10451000EAFF01C0E9FF28C6EFFF205351E1F1C5D2
:1045200092F6F0C591F6000190EC08F00601276BB9
:1045300001C026F6036A0501FE51006EE8BE0306BF
:104540000601015C03E12751035C3AE021C600F655
:104550000501FE5304E03F0E060121170501010E7F
:104560000601215FFFC50DF625C6D0F624C6CFF69D
:1045700023C6CEF622C6CDF6D26B200ED16F060E24
:10458000D46FD36B000181EC0EF0015203E0FF0EFB
:10459000016E42D0060E0601276F220E266F000123
:1045A000B4DD0150FF0803E1FF0E016E35D0060EA9
:1045B0000601276F266B286B296B000155DE06016B
:1045C000010E0501FE5F3BD725C6D0F624C6CFF607
:1045D00023C6CEF622C6CDF60601D26B0B0ED16FE6
:1045E000050ED46FF20ED36F000181EC0EF0015274
:1045F00003E0FF0E016E10D00501EEC5E9FFEFC527
:10460000EAFF22C6EFFF23C6ECFF24C6ECFF25C657
:10461000ECFF000E016E00011200720E0501856FA5
:10462000866BA86B64C5EBF563C5EAF5050EED6F07
:10463000850EEC6F050EEF6FAE0EEE6F000100EC15
:1046400080F0015203E1FF0E016EA4D00501C7BF47
:1046500005D0FF0E016E00019DD0050164C5EBF58C
:1046600063C5EAF52F0EEC6F000138EC1DF002C0B7
:10467000E9F501C0E8F505016351E85F6451E95BC4
:10468000010EE825A96FA9516325E96E000E64218A
:10469000EA6EEF521BE0A8511F0818E3036AA85105
:1046A000650F016E050E0322A9516325E96E000E08
:1046B0006421EA6EEFCFEAF503C0EAFF01C0E9FF2B
:1046C000EAC5EFFF010EA927A827DDD7036AA85185
:1046D000650FE96E050E0320EA6EEF6AC5C5EDF5BC
:1046E000C4C5ECF5C3C5EBF5C2C5EAF5050EEF6F21
:1046F000AA0EEE6F050EF16F650EF06F000103DE7E
:104700000150FF0803E1FF0E016E44D00501876BE5
:1047100087511F080BE3036A8751880FE96E050E66
:104720000320EA6EEF6A010E8727F2D7200E936FFF
:10473000ADC5B7F6ACC5B6F6ABC5B5F6AAC5B4F609
:104740000601B96B0B0EB86F050EBB6F880EBA6F02
:10475000000108EC06F0015203E0FF0E016E1AD0D2
:10476000ADC5D0F6ACC5CFF6ABC5CEF6AAC5CDF675
:104770000601D26B200ED16F050ED46F880ED36F59
:10478000000181EC0EF0015203E0FF0E016E02D039
:10479000000E016EEFEF23F0540EF66E010EF76E71
:1047A000000EF86E0F0E0501C16F0001B5EC07F0A9
:1047B00062C5EAFF61C5E9FFCEEC07F0650EF66E53
:1047C000010EF76E000EF86E030E0501C16F0001B9
:1047D000B5EC07F062C564F561C563F51ED70152FB
:1047E00009E06A0EF66E010EF76E000EF86EA0EC90
:1047F00007F008D04F0E9EA8FED7AD6E4B0E9EA8B8
:10480000FED7AD6E01EF34F00501A86BA851A425C9
:10481000E96E000EA521EA6EEF5219E0A851A42519
:10482000E96E000EA521EA6EEFCF87F6A7C589F6DF
:10483000A6C588F6000195EC12F00150FF0803E1CF
:10484000FF0E016E07D0010E0501A827DFD7000E6D
:10485000016E000112007E0EF66E010EF76E000E64
:10486000F86E0D0E0501C16F0001B5EC07F064C5CF
:10487000EAFF63C5E9FFCEEC07F08D0EF66E010E80
:10488000F76E000EF86E060E0501C16F0001B5EC63
:1048900007F062C5EAFF61C5E9FFCEEC07F0950EAF
:1048A000F66E010EF76E000EF86E030E0501C16F75
:1048B0000001B5EC07F0610E05019F6FA06B62C5AA
:1048C000EBF561C5EAF5050EED6F9F0EEC6F050E79
:1048D000EF6F650EEE6F000100EC80F0015209E011
:1048E0009A0EF66E010EF76E000EF86EA0EC07F051
:1048F00036D064C5A5F563C5A4F5050E0501A76FFF
:10490000650EA66F000180DF0D0E05019F6F0A0E78
:10491000A06FA16B050EA56F9F0EA46F050EA76F6C
:10492000650EA66F000170DF050E0501E86F650ECC
:10493000E76F000163EC1AF0015209E0AE0EF66E6B
:10494000010EF76E000EF86EA0EC07F008D04F0EC7
:104950009EA8FED7AD6E4B0E9EA8FED7AD6E01EFA2
:1049600034F0A4C503F00501A3C5E9FFA4C5EAFF1F
:10497000EF5239E0A4C5A8F5A3C5A7F5A6C5AAF5C9
:10498000A5C5A9F5AAC503F0A9C5E9FFAAC5EAFF0F
:10499000EF5216E0A7C5E9FFA8C5EAFFEFCFABF5D8
:1049A000AAC503F0A9C5E9FFAAC5EAFFEF50AB5DB0
:1049B00007E1A72BD8B4A82BA92BD8B4AA2BE2D7F0
:1049C000AAC503F0A9C5E9FF03C0EAFFEF5205E15C
:1049D000A3C501F0A4C502F009D0A32BD8B4A42B21
:1049E0000001BFD70501000E016E026E000130EF1D
:1049F00025F062C592F661C591F690EC08F002C010
:104A0000A2F501C0A1F5010E0501A15F000EA25B98
:104A10006151A125E96E6251A221EA6EEF502F0883
:104A20000FE02F0E9D6F9E6B62C5A4F561C5A3F5C7
:104A3000050EA66F9D0EA56F00015EEC09F0050145
:104A40002E0E9D6F9E6F2F0E9F6FA06B62C5A4F5FB
:104A500061C5A3F5050EA66F9D0EA56F000181D758
:104A600002C0A4F501C0A3F50501A35302E1A453BC
:104A70004AE02F0E9D6F9E6B020E06017A6F260E86
:104A8000796F050E7C6F9D0E7B6F0001E0EC0DF0E1
:104A90000152D8A402D0050136D0020E0601926F51
:104AA000260E916F000190EC08F002C0A2F501C043
:104AB000A1F5010E0501A15F000EA25B260EA12546
:104AC000E96E020EA221EA6EEF6A020EEB6F260E6D
:104AD000EA6F2F0EEC6F000138EC1DF002C0A2F55A
:104AE00001C0A1F5260E0501A15F020EA25B010E19
:104AF000A127000EA223260EA125E96E020EA221F7
:104B0000EA6EEF6A2AD0720E9D6F9E6B62C5EBF55E
:104B100061C5EAF5050EED6F9D0EEC6F050EEF6FAA
:104B2000630EEE6F000100EC80F0015209E0C20E4E
:104B3000F66E010EF76E000EF86EA0EC07F00CD0CA
:104B4000020EEA6E260EE96E62C5E2FF61C5E1FF64
:104B5000E752E6CFEEFFFCE10501000101EF34F082
:104B6000080E0501C125E96E000EC221EA6EEFCFE5
:104B7000C7F5ECCFC8F5ECCFC9F5ECCFCAF5050EFB
:104B800006017A6FC70E796F0001FCEC15F0015039
:104B9000FF080DE1180E0501C125E96E000EC221C6
:104BA000EA6E020EEF6EFF0E016E1FD10001CAC544
:104BB000B7F6C9C5B6F6C8C5B5F6C7C5B4F6060199
:104BC000B96B010EB86F050EBB6FCF0EBA6F000147
:104BD00008EC06F00B0E0501C725D16F000EC821A9
:104BE000D26F000EC921D36F000ECA21D46FE8CF57
:104BF000B7F6D3C5B6F6D2C5B5F6D1C5B4F606013B
:104C0000B96B010EB86F050EBB6FD00EBA6F000105
:104C100008EC06F00501CF530BE1180EC125E96E33
:104C2000000EC221EA6E020EEF6EFF0E016EDDD0A5
:104C3000CF51E508A4E0D0510F08A1E0D0511008F1
:104C400009E1180EC125E96E000EC221EA6E010EBF
:104C5000EF6E07D0180EC125E96E000EC221EA6E74
:104C6000EF6A080EC125E96E000EC221EA6EC7C5C3
:104C7000EFFFC8C5ECFFC9C5ECFFCAC5ECFF1A0EB3
:104C8000C725D16F000EC821D26F000EC921D36F86
:104C9000000ECA21D46FE8CFB7F6D3C5B6F6D2C599
:104CA000B5F6D1C5B4F60601B96B020EB86F050EA4
:104CB000BB6FC30EBA6F000108EC06F0140E0501BD
:104CC000C725D16F000EC821D26F000EC921D36F46
:104CD000000ECA21D46FE8CFB7F6D3C5B6F6D2C559
:104CE000B5F6D1C5B4F60601B96B020EB86F050E64
:104CF000BB6FC50EBA6F000108EC06F0140E05017B
:104D0000C125016E000EC221036E01C0D1F5D26F24
:104D1000040EC125016E000EC221036E01C0D3F541
:104D2000D46FC6C5CCF6C5C5CBF6C4C5CAF6C3C5D7
:104D3000C9F60001E1EC0BF0D4C5EAFFD3C5E9FFE9
:104D400000C0EFFF01C0ECFF02C0ECFF03C0ECFFAE
:104D5000D2C5EAFFD1C5E9FF00C0EFFF01C0ECFFFB
:104D600002C0ECFF03C0ECFF1C0E0501C725D16F8C
:104D7000000EC821D26F000EC921D36F000ECA21C8
:104D8000D46FE8CFB7F6D3C5B6F6D2C5B5F6D1C560
:104D9000B4F60601B96B040EB86F050EBB6FCB0EEF
:104DA000BA6F000108EC06F0100E0501C125016E76
:104DB000000EC22101C0D1F5C1C5E9FFC2C5EAFF9D
:104DC000CBC5EFFFCCC5ECFFCDC5ECFFCEC5ECFFEE
:104DD000EA6ED1C5E9FFCBC5EFFFCCC5ECFFCDC571
:104DE000ECFFCEC5ECFF000E016E00011200720E4A
:104DF0000501BF6FC06B64C5EBF563C5EAF5050E31
:104E0000ED6FBF0EEC6F050EEF6F850EEE6F0001BC
:104E100000EC80F0015203E0FF0E016E63D0080E3B
:104E2000F66E000EF76E000EF86E040E0501C16FEF
:104E30000001B5EC07F064C5EAFF63C5E9FFCEECFD
:104E400007F02D0E9EA8FED7AD6E2D0E9EA8FED7A4
:104E5000AD6E9CC590F59BC58FF59AC58EF599C52D
:104E60008DF5050E0501C26F850EC16F000178DE5C
:104E70000150FF082DE090C57CF68FC57BF68EC5EE
:104E80007AF68DC579F6050E06017E6F650E7D6F8B
:104E9000000122EC0DF0015203E0FF0E016E22D062
:104EA0000D0E9EA8FED7AD6E0A0E9EA8FED7AD6E63
:104EB000050EEA6E650EE96ECEEC07F005019D2D3C
:104EC00005D02F0E000107EC08F005010001C9D73D
:104ED000050E0501E86F850EE76F000163EC1AF01F
:104EE000000E016E79EF27F062C564F561C563F5C8
:104EF0007ED701EF34F00501A651000A000105E05C
:104F0000010A30E0030A5BE074D0040E0501A0251D
:104F1000E96E000EA121EA6EEFCFABF5ECCFACF558
:104F2000ECCFADF5ECCFAEF5A251AB25A76FA351F9
:104F3000AC21A86FA451AD21A96FA551AE21AA6FD4
:104F4000A1C57CF6A0C57BF6050E06017E6FA70EF7
:104F50007D6F000103EC14F0015203E0FF0E016EBF
:104F600057D04AD0100E0501A025E96E000EA121F0
:104F7000EA6EEFCFABF5ECCFACF5ECCFADF5ECCF07
:104F8000AEF5A251AB5DA76FA351AC59A86FA45168
:104F9000AD59A96FA551AE59AA6FA1C57CF6A0C5A0
:104FA0007BF6050E06017E6FA70E7D6F000103ECF8
:104FB00014F0015203E0FF0E016E2AD01DD0A5C5EA
:104FC000AAF5A4C5A9F5A3C5A8F5A2C5A7F5A1C5CD
:104FD0007CF6A0C57BF6050E06017E6FA70E7D6FE1
:104FE000000103EC14F0015203E0FF0E016E10D03B
:104FF00003D0FF0E016E0CD0190E0501A025E96E3D
:10500000000EA121EA6EEF50EF0BEF6E000E016E65
:10501000000166EF29F0040E0501A625E96E000ED9
:10502000A721EA6EEFCFABF5ECCFACF5ECCFADF549
:10503000ECCFAEF51F0EAB17AC6BAD6BAE6BAB53DD
:1050400037E1AC5335E1AD5333E1AE5331E1040EFA
:10505000A625E96E000EA721EA6EEFCFB4F6ECCFDD
:10506000B5F6ECCFB6F6ECCFB7F61A0EA625016E64
:10507000000EA721036E01C0AFF5B06F0601B96B3A
:10508000200EB86F03C0BBF601C0BAF6000108ECF1
:1050900006F001520EE0190E0501A625E96E000E7C
:1050A000A721EA6EEF502009EF6EFF0E016E32D09D
:1050B000000105011A0EA625E96E000EA721EA6E71
:1050C000EFCFADF5A9C5EAFFA8C5E9FFADC5EFFF74
:1050D000AA6BAA5107081CE31A0EA625016E000E42
:1050E000A721036E01C0ABF5AC6F200E006E03C0AC
:1050F000EAFF01C0E9FFEFCF03F01F0EE926000E23
:10510000EA220330ED32002EFDD7010EAA27E1D7A7
:10511000000E016E0001C0EF28F0190E0501A32555
:10512000E96E000EA421EA6EEFA07ED0A3C5E9FFD0
:10513000A4C5EAFFEFCFA6F5ECCFA7F5ECCFA8F515
:10514000ECCFA9F5A65312E1A75310E1A8530EE145
:10515000A9530CE1190EA325E96E000EA421EA6EF5
:10516000EF501009EF6EFF0E016E60D0A4C5A7F5D9
:10517000A3C5A6F5050EA96FA50EA86F00014BD714
:105180000150FF0805E1FF0E016E05014FD000013F
:105190000501A55314E1190EA325E96E000EA42103
:1051A000EA6EEFB60CD0190EA325E96E000EA4210D
:1051B000EA6EEF501009EF6EFF0E016E37D0040E4D
:1051C000A325016E000EA421036E01C0A6F5A76FF2
:1051D000E8CF8DF601C08CF6000155EC11F00152BC
:1051E00005E0FF0E016E050121D000010501A3C5F8
:1051F000E9FFA4C5EAFF010EEF5C006E000EEC585B
:10520000016E000EEC58026E000EEC58ED52ED529D
:10521000ED5200C0EFFF01C0ECFF02C0ECFFEC6EEE
:10522000A5C501F003D002D0FF0E016E00011EEFF4
:1052300029F0A1C5A4F5A0C5A3F56FD701C0A2F5BB
:105240000501A2519EA8FED7AD6EA251FF08D8B4A9
:1052500002D00001EED7A2C501F000016DEF29F0E8
:10526000720E05019E6F9F6B62C5EBF561C5EAF595
:10527000050EED6F9E0EEC6F050EEF6F640EEE6F78
:10528000000100EC80F0015209E0480EF66E020EBB
:10529000F76E000EF86EA0EC07F027D00D0E9EA85A
:1052A000FED7AD6E0A0E9EA8FED7AD6E0501635304
:1052B0000EE0050EA16F640EA06FA56BA46BA36B2F
:1052C000500EA26F010EA66F000115D60501050E46
:1052D000A16F640EA06F0001ACD7050E0501E86F49
:1052E000640EE76F000163EC1AF01200720E050104
:1052F000A76FA86BA96B66C5EBF565C5EAF5050E4A
:10530000ED6FA70EEC6F050EEF6FB00EEE6F0001A4
:1053100000EC80F0015203E1FF0E016E0ED2050198
:10532000C9BF05D0FF0E016E000107D2050166C599
:10533000EBF565C5EAF52F0EEC6F000138EC1DF0BA
:1053400005016551015CAA6FAA516525E96E000E41
:105350006621EA6EEF6A66C5EBF565C5EAF52F0EC4
:10536000EC6F000138EC1DF002C0EBF501C0EAF56E
:1053700005016551EA5F6651EB5B010EEA25AA6FF4
:10538000AA516525E96E000E6621EA6EEF521BE018
:10539000A9511F0818E3036AA951670F016E050E92
:1053A0000322AA516525E96E000E6621EA6EEFCF51
:1053B000ECF503C0EAFF01C0E9FFECC5EFFF010E09
:1053C000AA27A927DDD7036AA951670FE96E050E41
:1053D0000320EA6EEF6AAA516525E96E000E662188
:1053E000EA6E2F0EEF6EC7C5EDF5C6C5ECF5C5C567
:1053F000EBF5C4C5EAF5050EEF6FAC0EEE6F050ECA
:10540000F16F670EF06F000183EC21F00150FF088F
:1054100003E1FF0E016E91D1020E06019F6F1C0E7B
:105420009E6F00018CEC0FF00150FF0803E1FF0EAE
:10543000016E83D11FC2A1F61EC2A0F61DC29FF647
:105440001CC29EF64AEC10F00150FF0803E1FF0E6B
:10545000016E73D11FC2A1F61EC2A0F61DC29FF637
:105460001CC29EF60F0E0601A56FA469A369A2696E
:105470000001C4EC0EF00150FF0803E1FF0E016EC5
:105480005CD10501AB6BAB511F080BE3036AAB5159
:10549000870FE96E050E0320EA6EEF6A010EAB2757
:1054A000F2D7100E926F1CC2A1F505011DC2A2F524
:1054B00005011EC29BF505011FC29CF50501AFC584
:1054C000B7F6AEC5B6F6ADC5B5F6ACC5B4F60601D1
:1054D000B96B0B0EB86F050EBB6F870EBA6F00016C
:1054E00008EC06F0015203E0FF0E016E26D1AFC5B5
:1054F000D0F6AEC5CFF6ADC5CEF6ACC5CDF606013D
:10550000D26B200ED16F050ED46F870ED36F0001C2
:1055100081EC0EF0015203E0FF0E016E0ED11FC2AE
:10552000CCF61EC2CBF61DC2CAF61CC2C9F6E1EC0F
:105530000BF003C0AFF502C0AEF501C0ADF500C081
:10554000ACF50501AB6BAB511F0831E3AB530AE17E
:10555000036AAB51870FE96E050E0320EA6E2E0E2B
:10556000EF6E22D0AB510A080AE3036AAB51870FF2
:10557000E96E050E0320EA6E200EEF6E15D0AB51DA
:105580000B080AE1036AAB51870FE96E050E032091
:10559000EA6E100EEF6E08D0036AAB51870FE96E0A
:1055A000050E0320EA6EEF6A010EAB27CCD71CC2B2
:1055B000A1F505011DC2A2F505011EC29BF505015D
:1055C0001FC29CF50501AFC5D0F6AEC5CFF6ADC57F
:1055D000CEF6ACC5CDF60601D26B200ED16F050E0E
:1055E000D46F870ED36F000181EC0EF0015203E0FF
:1055F000FF0E016EA2D00501AB6BAB510B0826E389
:10560000AB5101080AE3036AAB51870FE96E050E3F
:105610000320EA6E2E0EEF6E16D0AB510A080AE395
:10562000036AAB51870FE96E050E0320EA6E200E68
:10563000EF6E09D0036AAB51870FE96E050E0320A8
:10564000EA6E100EEF6E010EAB27D7D70201205184
:105650000501BC5D14E1020121510501BD5D0FE1B1
:10566000020122510501BE5D0AE10201235105013B
:10567000BF5D05E19B6B9C6BA16BA26B38D0BFC576
:105680009AF6BEC599F6BDC598F6BCC597F6000159
:105690003BEC0BF0050100C0A1F5BFC59AF6BEC5F5
:1056A00099F6BDC598F6BCC597F600013BEC0BF02A
:1056B000050101C0A2F5BFC59AF6BEC599F6BDC5E4
:1056C00098F6BCC597F600013BEC0BF0050102C053
:1056D0009BF5BFC59AF6BEC599F6BDC598F6BCC583
:1056E00097F600013BEC0BF0050103C09CF5200E82
:1056F000AC25EA6F000EAD21EB6F000EAE21EC6F12
:10570000000EAF21ED6FE8CFD0F6ECC5CFF6EBC5BC
:10571000CEF6EAC5CDF60601D26B200ED16F050E8E
:10572000D46F870ED36F000181EC0EF0015203E0BD
:10573000FF0E016E02D0000E016EE8EF2BF062C585
:1057400092F661C591F690EC08F002C066F501C0D2
:1057500065F5010E0501655F000E665B615165250B
:10576000E96E62516621EA6EEF502F080FE02F0EAE
:10577000636F646B62C5A4F561C5A3F5050EA66FE2
:10578000630EA56F00015EEC09F00501DE0EF66EFA
:10579000010EF76E000EF86E140EC16F0001B5EC2D
:1057A00007F062C5EAFF61C5E9FFCEEC07F0F40E31
:1057B000F66E010EF76E000EF86E030E0501C16F56
:1057C0000001B5EC07F062C566F561C565F58ED5DB
:1057D000015209E0F80EF66E010EF76E000EF86E3B
:1057E000A0EC07F008D04F0E9EA8FED7AD6E4B0E72
:1057F0009EA8FED7AD6E01EF34F0720E0501676F03
:10580000686B66C5EBF565C5EAF5050EED6F670ECD
:10581000EC6F050EEF6F690EEE6F000100EC80F08B
:105820000150FF0803E1FF0E016E28D0400E050174
:105830007D25716F000E7E21726F000E7F21736FC8
:10584000000E8021746F050EC26F690EC16F0001DA
:10585000B0EC25F00150FF0803E0FF0E016E0ED002
:1058600066C5A4F565C5A3F5F6EC1BF00150FF086D
:1058700003E1FF0E016E02D0000E016E8BEF2CF0E3
:10588000120EF66E020EF76E000EF86E160E050181
:10589000C16F0001B5EC07F062C5EAFF61C5E9FF21
:1058A000CEEC07F02A0EF66E020EF76E000EF86EC2
:1058B000030E0501C16F0001B5EC07F062C592F659
:1058C00061C591F690EC08F002C066F501C065F57F
:1058D000010E0501655F000E665B61516525E96E8D
:1058E00062516621EA6EEF502F080FE02F0E636FB2
:1058F000646B62C5A4F561C5A3F5050EA66F630EC2
:10590000A56F00015EEC09F0050162C566F561C591
:1059100065F5000172D7015209E02E0EF66E020EF7
:10592000F76E000EF86EA0EC07F008D04F0E9EA8A0
:10593000FED7AD6E4B0E9EA8FED7AD6E01EF34F0D4
:1059400005016F6B6D6B0A0E6E6F6C6B6B6B6A6B28
:10595000696B6751681105E1006A016A026A036AAE
:1059600037D16F516F2B6725E96E000E6821EA6E03
:10597000EFCF70F570512D080CE1010E6D6F6F5176
:105980006F2B6725E96E000E6821EA6EEFCF70F588
:105990000CD070512B0809E16F516F2B6725E96E10
:1059A000000E6821EA6EEFCF70F570512F08D8B065
:1059B000F7D070513908D8A0F3D0705130081EE1EB
:1059C0006F516725E96E000E6821EA6EEF50780886
:1059D00009E06F516725E96E000E6821EA6EEF500D
:1059E00058080CE1100E6E6F6F2B6F516F2B6725EF
:1059F000E96E000E6821EA6EEFCF70F56E510A086D
:105A000043E170512F083FE2705139083CE3D890D0
:105A10006935726F6A35736F6B35746F6C35756F7E
:105A20006935006E6A35016E6B35026E6C35036E3A
:105A300000360136023603360036013602360336AA
:105A4000F80E001672510026735101227451022281
:105A50007551032203C06CF502C06BF501C06AF5F5
:105A600000C069F5300E705D6927000E6A236B2354
:105A70006C236F516F2B6725E96E000E6821EA6E6B
:105A8000EFCF70F5BED78CD06E511008D8A488D057
:105A90007051600806E270517A0803E37051DF0B21
:105AA00001D07051706F70512F0803E270513908A6
:105AB00007E270514008D8B073D07051460870E3C7
:105AC00070512F082EE2705139082BE36935726F3F
:105AD0006A35736F6B35746F6C35756F72377337EA
